{
	"voting.sol": {
		"Voting": {
			"abi": [
				{
					"inputs": [],
					"stateMutability": "nonpayable",
					"type": "constructor"
				},
				{
					"anonymous": false,
					"inputs": [
						{
							"indexed": false,
							"internalType": "uint256",
							"name": "id",
							"type": "uint256"
						},
						{
							"indexed": false,
							"internalType": "string",
							"name": "name",
							"type": "string"
						}
					],
					"name": "CandidateAdded",
					"type": "event"
				},
				{
					"anonymous": false,
					"inputs": [
						{
							"indexed": true,
							"internalType": "address",
							"name": "voter",
							"type": "address"
						},
						{
							"indexed": false,
							"internalType": "uint256",
							"name": "candidateId",
							"type": "uint256"
						}
					],
					"name": "Voted",
					"type": "event"
				},
				{
					"anonymous": false,
					"inputs": [],
					"name": "VotingEnded",
					"type": "event"
				},
				{
					"anonymous": false,
					"inputs": [],
					"name": "VotingStarted",
					"type": "event"
				},
				{
					"inputs": [
						{
							"internalType": "string",
							"name": "_name",
							"type": "string"
						}
					],
					"name": "addCandidate",
					"outputs": [],
					"stateMutability": "nonpayable",
					"type": "function"
				},
				{
					"inputs": [],
					"name": "admin",
					"outputs": [
						{
							"internalType": "address",
							"name": "",
							"type": "address"
						}
					],
					"stateMutability": "view",
					"type": "function"
				},
				{
					"inputs": [],
					"name": "candidadtescount",
					"outputs": [
						{
							"internalType": "uint256",
							"name": "",
							"type": "uint256"
						}
					],
					"stateMutability": "view",
					"type": "function"
				},
				{
					"inputs": [
						{
							"internalType": "uint256",
							"name": "",
							"type": "uint256"
						}
					],
					"name": "candidates",
					"outputs": [
						{
							"internalType": "uint256",
							"name": "id",
							"type": "uint256"
						},
						{
							"internalType": "string",
							"name": "name",
							"type": "string"
						},
						{
							"internalType": "uint256",
							"name": "votecount",
							"type": "uint256"
						}
					],
					"stateMutability": "view",
					"type": "function"
				},
				{
					"inputs": [],
					"name": "endVoting",
					"outputs": [],
					"stateMutability": "nonpayable",
					"type": "function"
				},
				{
					"inputs": [
						{
							"internalType": "uint256",
							"name": "_id",
							"type": "uint256"
						}
					],
					"name": "getCandidate",
					"outputs": [
						{
							"internalType": "uint256",
							"name": "",
							"type": "uint256"
						},
						{
							"internalType": "string",
							"name": "",
							"type": "string"
						},
						{
							"internalType": "uint256",
							"name": "",
							"type": "uint256"
						}
					],
					"stateMutability": "view",
					"type": "function"
				},
				{
					"inputs": [
						{
							"internalType": "address",
							"name": "",
							"type": "address"
						}
					],
					"name": "hasVoted",
					"outputs": [
						{
							"internalType": "bool",
							"name": "",
							"type": "bool"
						}
					],
					"stateMutability": "view",
					"type": "function"
				},
				{
					"inputs": [
						{
							"internalType": "uint256",
							"name": "_id",
							"type": "uint256"
						}
					],
					"name": "removeCandidate",
					"outputs": [],
					"stateMutability": "nonpayable",
					"type": "function"
				},
				{
					"inputs": [],
					"name": "startVoting",
					"outputs": [],
					"stateMutability": "nonpayable",
					"type": "function"
				},
				{
					"inputs": [
						{
							"internalType": "uint256",
							"name": "_candidateId",
							"type": "uint256"
						}
					],
					"name": "vote",
					"outputs": [],
					"stateMutability": "nonpayable",
					"type": "function"
				},
				{
					"inputs": [],
					"name": "votingEnded",
					"outputs": [
						{
							"internalType": "bool",
							"name": "",
							"type": "bool"
						}
					],
					"stateMutability": "view",
					"type": "function"
				},
				{
					"inputs": [],
					"name": "votingStarted",
					"outputs": [
						{
							"internalType": "bool",
							"name": "",
							"type": "bool"
						}
					],
					"stateMutability": "view",
					"type": "function"
				}
			],
			"devdoc": {
				"kind": "dev",
				"methods": {},
				"version": 1
			},
			"evm": {
				"assembly": "    /* \"voting.sol\":60:2463  contract Voting {\r... */\n  mstore(0x40, 0x80)\n    /* \"voting.sol\":573:624  constructor() {\r... */\n  callvalue\n  dup1\n  iszero\n  tag_1\n  jumpi\n  0x00\n  dup1\n  revert\ntag_1:\n  pop\n    /* \"voting.sol\":606:616  msg.sender */\n  caller\n    /* \"voting.sol\":598:603  admin */\n  0x00\n  dup1\n    /* \"voting.sol\":598:616  admin = msg.sender */\n  0x0100\n  exp\n  dup2\n  sload\n  dup2\n  0xffffffffffffffffffffffffffffffffffffffff\n  mul\n  not\n  and\n  swap1\n  dup4\n  0xffffffffffffffffffffffffffffffffffffffff\n  and\n  mul\n  or\n  swap1\n  sstore\n  pop\n    /* \"voting.sol\":60:2463  contract Voting {\r... */\n  dataSize(sub_0)\n  dup1\n  dataOffset(sub_0)\n  0x00\n  codecopy\n  0x00\n  return\nstop\n\nsub_0: assembly {\n        /* \"voting.sol\":60:2463  contract Voting {\r... */\n      mstore(0x40, 0x80)\n      callvalue\n      dup1\n      iszero\n      tag_1\n      jumpi\n      0x00\n      dup1\n      revert\n    tag_1:\n      pop\n      jumpi(tag_2, lt(calldatasize, 0x04))\n      shr(0xe0, calldataload(0x00))\n      dup1\n      0x462e91ec\n      gt\n      tag_15\n      jumpi\n      dup1\n      0x462e91ec\n      eq\n      tag_9\n      jumpi\n      dup1\n      0x83d948b7\n      eq\n      tag_10\n      jumpi\n      dup1\n      0x9d5a0529\n      eq\n      tag_11\n      jumpi\n      dup1\n      0xbc08df78\n      eq\n      tag_12\n      jumpi\n      dup1\n      0xc3403ddf\n      eq\n      tag_13\n      jumpi\n      dup1\n      0xf851a440\n      eq\n      tag_14\n      jumpi\n      jump(tag_2)\n    tag_15:\n      dup1\n      0x0121b93f\n      eq\n      tag_3\n      jumpi\n      dup1\n      0x09e9d7e2\n      eq\n      tag_4\n      jumpi\n      dup1\n      0x09eef43e\n      eq\n      tag_5\n      jumpi\n      dup1\n      0x1ec6b60a\n      eq\n      tag_6\n      jumpi\n      dup1\n      0x3477ee2e\n      eq\n      tag_7\n      jumpi\n      dup1\n      0x35b8e820\n      eq\n      tag_8\n      jumpi\n    tag_2:\n      0x00\n      dup1\n      revert\n        /* \"voting.sol\":1860:2201  function vote(uint _candidateId) public duringVoting {\r... */\n    tag_3:\n      tag_16\n      0x04\n      dup1\n      calldatasize\n      sub\n      dup2\n      add\n      swap1\n      tag_17\n      swap2\n      swap1\n      tag_18\n      jump\t// in\n    tag_17:\n      tag_19\n      jump\t// in\n    tag_16:\n      stop\n        /* \"voting.sol\":1208:1460  function removeCandidate(uint _id) public onlyAdmin {\r... */\n    tag_4:\n      tag_20\n      0x04\n      dup1\n      calldatasize\n      sub\n      dup2\n      add\n      swap1\n      tag_21\n      swap2\n      swap1\n      tag_18\n      jump\t// in\n    tag_21:\n      tag_22\n      jump\t// in\n    tag_20:\n      stop\n        /* \"voting.sol\":296:336  mapping(address => bool) public hasVoted */\n    tag_5:\n      tag_23\n      0x04\n      dup1\n      calldatasize\n      sub\n      dup2\n      add\n      swap1\n      tag_24\n      swap2\n      swap1\n      tag_25\n      jump\t// in\n    tag_24:\n      tag_26\n      jump\t// in\n    tag_23:\n      mload(0x40)\n      tag_27\n      swap2\n      swap1\n      tag_28\n      jump\t// in\n    tag_27:\n      mload(0x40)\n      dup1\n      swap2\n      sub\n      swap1\n      return\n        /* \"voting.sol\":1468:1669  function startVoting() public onlyAdmin {\r... */\n    tag_6:\n      tag_29\n      tag_30\n      jump\t// in\n    tag_29:\n      stop\n        /* \"voting.sol\":245:289  mapping(uint => Candidate) public candidates */\n    tag_7:\n      tag_31\n      0x04\n      dup1\n      calldatasize\n      sub\n      dup2\n      add\n      swap1\n      tag_32\n      swap2\n      swap1\n      tag_18\n      jump\t// in\n    tag_32:\n      tag_33\n      jump\t// in\n    tag_31:\n      mload(0x40)\n      tag_34\n      swap4\n      swap3\n      swap2\n      swap1\n      tag_35\n      jump\t// in\n    tag_34:\n      mload(0x40)\n      dup1\n      swap2\n      sub\n      swap1\n      return\n        /* \"voting.sol\":2209:2460  function getCandidate(uint _id) public view returns (uint, string memory, uint) {\r... */\n    tag_8:\n      tag_36\n      0x04\n      dup1\n      calldatasize\n      sub\n      dup2\n      add\n      swap1\n      tag_37\n      swap2\n      swap1\n      tag_18\n      jump\t// in\n    tag_37:\n      tag_38\n      jump\t// in\n    tag_36:\n      mload(0x40)\n      tag_39\n      swap4\n      swap3\n      swap2\n      swap1\n      tag_35\n      jump\t// in\n    tag_39:\n      mload(0x40)\n      dup1\n      swap2\n      sub\n      swap1\n      return\n        /* \"voting.sol\":884:1200  function addCandidate(string memory _name) public onlyAdmin {\r... */\n    tag_9:\n      tag_40\n      0x04\n      dup1\n      calldatasize\n      sub\n      dup2\n      add\n      swap1\n      tag_41\n      swap2\n      swap1\n      tag_42\n      jump\t// in\n    tag_41:\n      tag_43\n      jump\t// in\n    tag_40:\n      stop\n        /* \"voting.sol\":345:370  bool public votingStarted */\n    tag_10:\n      tag_44\n      tag_45\n      jump\t// in\n    tag_44:\n      mload(0x40)\n      tag_46\n      swap2\n      swap1\n      tag_28\n      jump\t// in\n    tag_46:\n      mload(0x40)\n      dup1\n      swap2\n      sub\n      swap1\n      return\n        /* \"voting.sol\":377:400  bool public votingEnded */\n    tag_11:\n      tag_47\n      tag_48\n      jump\t// in\n    tag_47:\n      mload(0x40)\n      tag_49\n      swap2\n      swap1\n      tag_28\n      jump\t// in\n    tag_49:\n      mload(0x40)\n      dup1\n      swap2\n      sub\n      swap1\n      return\n        /* \"voting.sol\":210:238  uint public candidadtescount */\n    tag_12:\n      tag_50\n      tag_51\n      jump\t// in\n    tag_50:\n      mload(0x40)\n      tag_52\n      swap2\n      swap1\n      tag_53\n      jump\t// in\n    tag_52:\n      mload(0x40)\n      dup1\n      swap2\n      sub\n      swap1\n      return\n        /* \"voting.sol\":1677:1852  function endVoting() public onlyAdmin {\r... */\n    tag_13:\n      tag_54\n      tag_55\n      jump\t// in\n    tag_54:\n      stop\n        /* \"voting.sol\":83:103  address public admin */\n    tag_14:\n      tag_56\n      tag_57\n      jump\t// in\n    tag_56:\n      mload(0x40)\n      tag_58\n      swap2\n      swap1\n      tag_59\n      jump\t// in\n    tag_58:\n      mload(0x40)\n      dup1\n      swap2\n      sub\n      swap1\n      return\n        /* \"voting.sol\":1860:2201  function vote(uint _candidateId) public duringVoting {\r... */\n    tag_19:\n        /* \"voting.sol\":801:814  votingStarted */\n      0x04\n      0x00\n      swap1\n      sload\n      swap1\n      0x0100\n      exp\n      swap1\n      div\n      0xff\n      and\n        /* \"voting.sol\":801:830  votingStarted && !votingEnded */\n      dup1\n      iszero\n      tag_61\n      jumpi\n      pop\n        /* \"voting.sol\":819:830  votingEnded */\n      0x04\n      0x01\n      swap1\n      sload\n      swap1\n      0x0100\n      exp\n      swap1\n      div\n      0xff\n      and\n        /* \"voting.sol\":818:830  !votingEnded */\n      iszero\n        /* \"voting.sol\":801:830  votingStarted && !votingEnded */\n    tag_61:\n        /* \"voting.sol\":793:856  require(votingStarted && !votingEnded, \"Voting is not active.\") */\n      tag_62\n      jumpi\n      mload(0x40)\n      0x08c379a000000000000000000000000000000000000000000000000000000000\n      dup2\n      mstore\n      0x04\n      add\n      tag_63\n      swap1\n      tag_64\n      jump\t// in\n    tag_63:\n      mload(0x40)\n      dup1\n      swap2\n      sub\n      swap1\n      revert\n    tag_62:\n        /* \"voting.sol\":1933:1941  hasVoted */\n      0x03\n        /* \"voting.sol\":1933:1953  hasVoted[msg.sender] */\n      0x00\n        /* \"voting.sol\":1942:1952  msg.sender */\n      caller\n        /* \"voting.sol\":1933:1953  hasVoted[msg.sender] */\n      0xffffffffffffffffffffffffffffffffffffffff\n      and\n      0xffffffffffffffffffffffffffffffffffffffff\n      and\n      dup2\n      mstore\n      0x20\n      add\n      swap1\n      dup2\n      mstore\n      0x20\n      add\n      0x00\n      keccak256\n      0x00\n      swap1\n      sload\n      swap1\n      0x0100\n      exp\n      swap1\n      div\n      0xff\n      and\n        /* \"voting.sol\":1932:1953  !hasVoted[msg.sender] */\n      iszero\n        /* \"voting.sol\":1924:1981  require(!hasVoted[msg.sender], \"You have already voted.\") */\n      tag_66\n      jumpi\n      mload(0x40)\n      0x08c379a000000000000000000000000000000000000000000000000000000000\n      dup2\n      mstore\n      0x04\n      add\n      tag_67\n      swap1\n      tag_68\n      jump\t// in\n    tag_67:\n      mload(0x40)\n      dup1\n      swap2\n      sub\n      swap1\n      revert\n    tag_66:\n        /* \"voting.sol\":2015:2031  candidadtescount */\n      sload(0x01)\n        /* \"voting.sol\":2000:2012  _candidateId */\n      dup2\n        /* \"voting.sol\":2000:2031  _candidateId < candidadtescount */\n      lt\n        /* \"voting.sol\":1992:2057  require(_candidateId < candidadtescount, \"Invalid candidate ID.\") */\n      tag_69\n      jumpi\n      mload(0x40)\n      0x08c379a000000000000000000000000000000000000000000000000000000000\n      dup2\n      mstore\n      0x04\n      add\n      tag_70\n      swap1\n      tag_71\n      jump\t// in\n    tag_70:\n      mload(0x40)\n      dup1\n      swap2\n      sub\n      swap1\n      revert\n    tag_69:\n        /* \"voting.sol\":2070:2080  candidates */\n      0x02\n        /* \"voting.sol\":2070:2094  candidates[_candidateId] */\n      0x00\n        /* \"voting.sol\":2081:2093  _candidateId */\n      dup3\n        /* \"voting.sol\":2070:2094  candidates[_candidateId] */\n      dup2\n      mstore\n      0x20\n      add\n      swap1\n      dup2\n      mstore\n      0x20\n      add\n      0x00\n      keccak256\n        /* \"voting.sol\":2070:2104  candidates[_candidateId].votecount */\n      0x02\n      add\n      0x00\n        /* \"voting.sol\":2070:2106  candidates[_candidateId].votecount++ */\n      dup2\n      sload\n      dup1\n      swap3\n      swap2\n      swap1\n      tag_72\n      swap1\n      tag_73\n      jump\t// in\n    tag_72:\n      swap2\n      swap1\n      pop\n      sstore\n      pop\n        /* \"voting.sol\":2140:2144  true */\n      0x01\n        /* \"voting.sol\":2117:2125  hasVoted */\n      0x03\n        /* \"voting.sol\":2117:2137  hasVoted[msg.sender] */\n      0x00\n        /* \"voting.sol\":2126:2136  msg.sender */\n      caller\n        /* \"voting.sol\":2117:2137  hasVoted[msg.sender] */\n      0xffffffffffffffffffffffffffffffffffffffff\n      and\n      0xffffffffffffffffffffffffffffffffffffffff\n      and\n      dup2\n      mstore\n      0x20\n      add\n      swap1\n      dup2\n      mstore\n      0x20\n      add\n      0x00\n      keccak256\n      0x00\n        /* \"voting.sol\":2117:2144  hasVoted[msg.sender] = true */\n      0x0100\n      exp\n      dup2\n      sload\n      dup2\n      0xff\n      mul\n      not\n      and\n      swap1\n      dup4\n      iszero\n      iszero\n      mul\n      or\n      swap1\n      sstore\n      pop\n        /* \"voting.sol\":2168:2178  msg.sender */\n      caller\n        /* \"voting.sol\":2162:2193  Voted(msg.sender, _candidateId) */\n      0xffffffffffffffffffffffffffffffffffffffff\n      and\n      0x4d99b957a2bc29a30ebd96a7be8e68fe50a3c701db28a91436490b7d53870ca4\n        /* \"voting.sol\":2180:2192  _candidateId */\n      dup3\n        /* \"voting.sol\":2162:2193  Voted(msg.sender, _candidateId) */\n      mload(0x40)\n      tag_74\n      swap2\n      swap1\n      tag_53\n      jump\t// in\n    tag_74:\n      mload(0x40)\n      dup1\n      swap2\n      sub\n      swap1\n      log2\n        /* \"voting.sol\":1860:2201  function vote(uint _candidateId) public duringVoting {\r... */\n      pop\n      jump\t// out\n        /* \"voting.sol\":1208:1460  function removeCandidate(uint _id) public onlyAdmin {\r... */\n    tag_22:\n        /* \"voting.sol\":681:691  msg.sender */\n      caller\n        /* \"voting.sol\":672:691  admin == msg.sender */\n      0xffffffffffffffffffffffffffffffffffffffff\n      and\n        /* \"voting.sol\":672:677  admin */\n      0x00\n      dup1\n      sload\n      swap1\n      0x0100\n      exp\n      swap1\n      div\n      0xffffffffffffffffffffffffffffffffffffffff\n      and\n        /* \"voting.sol\":672:691  admin == msg.sender */\n      0xffffffffffffffffffffffffffffffffffffffff\n      and\n      eq\n        /* \"voting.sol\":664:730  require(admin == msg.sender, \"Only admin can perform this action\") */\n      tag_76\n      jumpi\n      mload(0x40)\n      0x08c379a000000000000000000000000000000000000000000000000000000000\n      dup2\n      mstore\n      0x04\n      add\n      tag_77\n      swap1\n      tag_78\n      jump\t// in\n    tag_77:\n      mload(0x40)\n      dup1\n      swap2\n      sub\n      swap1\n      revert\n    tag_76:\n        /* \"voting.sol\":1280:1293  votingStarted */\n      0x04\n      0x00\n      swap1\n      sload\n      swap1\n      0x0100\n      exp\n      swap1\n      div\n      0xff\n      and\n        /* \"voting.sol\":1279:1293  !votingStarted */\n      iszero\n        /* \"voting.sol\":1271:1348  require(!votingStarted, \"Cannot remove candidates after voting has started.\") */\n      tag_80\n      jumpi\n      mload(0x40)\n      0x08c379a000000000000000000000000000000000000000000000000000000000\n      dup2\n      mstore\n      0x04\n      add\n      tag_81\n      swap1\n      tag_82\n      jump\t// in\n    tag_81:\n      mload(0x40)\n      dup1\n      swap2\n      sub\n      swap1\n      revert\n    tag_80:\n        /* \"voting.sol\":1373:1389  candidadtescount */\n      sload(0x01)\n        /* \"voting.sol\":1367:1370  _id */\n      dup2\n        /* \"voting.sol\":1367:1389  _id < candidadtescount */\n      lt\n        /* \"voting.sol\":1359:1419  require(_id < candidadtescount, \"Candidate does not exist.\") */\n      tag_83\n      jumpi\n      mload(0x40)\n      0x08c379a000000000000000000000000000000000000000000000000000000000\n      dup2\n      mstore\n      0x04\n      add\n      tag_84\n      swap1\n      tag_85\n      jump\t// in\n    tag_84:\n      mload(0x40)\n      dup1\n      swap2\n      sub\n      swap1\n      revert\n    tag_83:\n        /* \"voting.sol\":1437:1447  candidates */\n      0x02\n        /* \"voting.sol\":1437:1452  candidates[_id] */\n      0x00\n        /* \"voting.sol\":1448:1451  _id */\n      dup3\n        /* \"voting.sol\":1437:1452  candidates[_id] */\n      dup2\n      mstore\n      0x20\n      add\n      swap1\n      dup2\n      mstore\n      0x20\n      add\n      0x00\n      keccak256\n      0x00\n        /* \"voting.sol\":1430:1452  delete candidates[_id] */\n      dup1\n      dup3\n      add\n      0x00\n      swap1\n      sstore\n      0x01\n      dup3\n      add\n      0x00\n      tag_86\n      swap2\n      swap1\n      tag_87\n      jump\t// in\n    tag_86:\n      0x02\n      dup3\n      add\n      0x00\n      swap1\n      sstore\n      pop\n      pop\n        /* \"voting.sol\":1208:1460  function removeCandidate(uint _id) public onlyAdmin {\r... */\n      pop\n      jump\t// out\n        /* \"voting.sol\":296:336  mapping(address => bool) public hasVoted */\n    tag_26:\n      mstore(0x20, 0x03)\n      dup1\n      0x00\n      mstore\n      keccak256(0x00, 0x40)\n      0x00\n      swap2\n      pop\n      sload\n      swap1\n      0x0100\n      exp\n      swap1\n      div\n      0xff\n      and\n      dup2\n      jump\t// out\n        /* \"voting.sol\":1468:1669  function startVoting() public onlyAdmin {\r... */\n    tag_30:\n        /* \"voting.sol\":681:691  msg.sender */\n      caller\n        /* \"voting.sol\":672:691  admin == msg.sender */\n      0xffffffffffffffffffffffffffffffffffffffff\n      and\n        /* \"voting.sol\":672:677  admin */\n      0x00\n      dup1\n      sload\n      swap1\n      0x0100\n      exp\n      swap1\n      div\n      0xffffffffffffffffffffffffffffffffffffffff\n      and\n        /* \"voting.sol\":672:691  admin == msg.sender */\n      0xffffffffffffffffffffffffffffffffffffffff\n      and\n      eq\n        /* \"voting.sol\":664:730  require(admin == msg.sender, \"Only admin can perform this action\") */\n      tag_89\n      jumpi\n      mload(0x40)\n      0x08c379a000000000000000000000000000000000000000000000000000000000\n      dup2\n      mstore\n      0x04\n      add\n      tag_90\n      swap1\n      tag_78\n      jump\t// in\n    tag_90:\n      mload(0x40)\n      dup1\n      swap2\n      sub\n      swap1\n      revert\n    tag_89:\n        /* \"voting.sol\":1528:1541  votingStarted */\n      0x04\n      0x00\n      swap1\n      sload\n      swap1\n      0x0100\n      exp\n      swap1\n      div\n      0xff\n      and\n        /* \"voting.sol\":1527:1541  !votingStarted */\n      iszero\n        /* \"voting.sol\":1519:1569  require(!votingStarted, \"Voting already started.\") */\n      tag_92\n      jumpi\n      mload(0x40)\n      0x08c379a000000000000000000000000000000000000000000000000000000000\n      dup2\n      mstore\n      0x04\n      add\n      tag_93\n      swap1\n      tag_94\n      jump\t// in\n    tag_93:\n      mload(0x40)\n      dup1\n      swap2\n      sub\n      swap1\n      revert\n    tag_92:\n        /* \"voting.sol\":1596:1600  true */\n      0x01\n        /* \"voting.sol\":1580:1593  votingStarted */\n      0x04\n      0x00\n        /* \"voting.sol\":1580:1600  votingStarted = true */\n      0x0100\n      exp\n      dup2\n      sload\n      dup2\n      0xff\n      mul\n      not\n      and\n      swap1\n      dup4\n      iszero\n      iszero\n      mul\n      or\n      swap1\n      sstore\n      pop\n        /* \"voting.sol\":1625:1630  false */\n      0x00\n        /* \"voting.sol\":1611:1622  votingEnded */\n      0x04\n      0x01\n        /* \"voting.sol\":1611:1630  votingEnded = false */\n      0x0100\n      exp\n      dup2\n      sload\n      dup2\n      0xff\n      mul\n      not\n      and\n      swap1\n      dup4\n      iszero\n      iszero\n      mul\n      or\n      swap1\n      sstore\n      pop\n        /* \"voting.sol\":1646:1661  VotingStarted() */\n      0x877e2548498f42b7975a186b94ef1d32c86d420b7b806dd2be2bea293b895904\n      mload(0x40)\n      mload(0x40)\n      dup1\n      swap2\n      sub\n      swap1\n      log1\n        /* \"voting.sol\":1468:1669  function startVoting() public onlyAdmin {\r... */\n      jump\t// out\n        /* \"voting.sol\":245:289  mapping(uint => Candidate) public candidates */\n    tag_33:\n      mstore(0x20, 0x02)\n      dup1\n      0x00\n      mstore\n      keccak256(0x00, 0x40)\n      0x00\n      swap2\n      pop\n      swap1\n      pop\n      dup1\n      0x00\n      add\n      sload\n      swap1\n      dup1\n      0x01\n      add\n      dup1\n      sload\n      tag_95\n      swap1\n      tag_96\n      jump\t// in\n    tag_95:\n      dup1\n      0x1f\n      add\n      0x20\n      dup1\n      swap2\n      div\n      mul\n      0x20\n      add\n      mload(0x40)\n      swap1\n      dup2\n      add\n      0x40\n      mstore\n      dup1\n      swap3\n      swap2\n      swap1\n      dup2\n      dup2\n      mstore\n      0x20\n      add\n      dup3\n      dup1\n      sload\n      tag_97\n      swap1\n      tag_96\n      jump\t// in\n    tag_97:\n      dup1\n      iszero\n      tag_98\n      jumpi\n      dup1\n      0x1f\n      lt\n      tag_99\n      jumpi\n      0x0100\n      dup1\n      dup4\n      sload\n      div\n      mul\n      dup4\n      mstore\n      swap2\n      0x20\n      add\n      swap2\n      jump(tag_98)\n    tag_99:\n      dup3\n      add\n      swap2\n      swap1\n      0x00\n      mstore\n      keccak256(0x00, 0x20)\n      swap1\n    tag_100:\n      dup2\n      sload\n      dup2\n      mstore\n      swap1\n      0x01\n      add\n      swap1\n      0x20\n      add\n      dup1\n      dup4\n      gt\n      tag_100\n      jumpi\n      dup3\n      swap1\n      sub\n      0x1f\n      and\n      dup3\n      add\n      swap2\n    tag_98:\n      pop\n      pop\n      pop\n      pop\n      pop\n      swap1\n      dup1\n      0x02\n      add\n      sload\n      swap1\n      pop\n      dup4\n      jump\t// out\n        /* \"voting.sol\":2209:2460  function getCandidate(uint _id) public view returns (uint, string memory, uint) {\r... */\n    tag_38:\n        /* \"voting.sol\":2262:2266  uint */\n      0x00\n        /* \"voting.sol\":2268:2281  string memory */\n      0x60\n        /* \"voting.sol\":2283:2287  uint */\n      0x00\n        /* \"voting.sol\":2314:2330  candidadtescount */\n      sload(0x01)\n        /* \"voting.sol\":2308:2311  _id */\n      dup5\n        /* \"voting.sol\":2308:2330  _id < candidadtescount */\n      lt\n        /* \"voting.sol\":2300:2360  require(_id < candidadtescount, \"Candidate does not exist.\") */\n      tag_102\n      jumpi\n      mload(0x40)\n      0x08c379a000000000000000000000000000000000000000000000000000000000\n      dup2\n      mstore\n      0x04\n      add\n      tag_103\n      swap1\n      tag_85\n      jump\t// in\n    tag_103:\n      mload(0x40)\n      dup1\n      swap2\n      sub\n      swap1\n      revert\n    tag_102:\n        /* \"voting.sol\":2371:2389  Candidate memory c */\n      0x00\n        /* \"voting.sol\":2392:2402  candidates */\n      0x02\n        /* \"voting.sol\":2392:2407  candidates[_id] */\n      0x00\n        /* \"voting.sol\":2403:2406  _id */\n      dup7\n        /* \"voting.sol\":2392:2407  candidates[_id] */\n      dup2\n      mstore\n      0x20\n      add\n      swap1\n      dup2\n      mstore\n      0x20\n      add\n      0x00\n      keccak256\n        /* \"voting.sol\":2371:2407  Candidate memory c = candidates[_id] */\n      mload(0x40)\n      dup1\n      0x60\n      add\n      0x40\n      mstore\n      swap1\n      dup2\n      0x00\n      dup3\n      add\n      sload\n      dup2\n      mstore\n      0x20\n      add\n      0x01\n      dup3\n      add\n      dup1\n      sload\n      tag_104\n      swap1\n      tag_96\n      jump\t// in\n    tag_104:\n      dup1\n      0x1f\n      add\n      0x20\n      dup1\n      swap2\n      div\n      mul\n      0x20\n      add\n      mload(0x40)\n      swap1\n      dup2\n      add\n      0x40\n      mstore\n      dup1\n      swap3\n      swap2\n      swap1\n      dup2\n      dup2\n      mstore\n      0x20\n      add\n      dup3\n      dup1\n      sload\n      tag_105\n      swap1\n      tag_96\n      jump\t// in\n    tag_105:\n      dup1\n      iszero\n      tag_106\n      jumpi\n      dup1\n      0x1f\n      lt\n      tag_107\n      jumpi\n      0x0100\n      dup1\n      dup4\n      sload\n      div\n      mul\n      dup4\n      mstore\n      swap2\n      0x20\n      add\n      swap2\n      jump(tag_106)\n    tag_107:\n      dup3\n      add\n      swap2\n      swap1\n      0x00\n      mstore\n      keccak256(0x00, 0x20)\n      swap1\n    tag_108:\n      dup2\n      sload\n      dup2\n      mstore\n      swap1\n      0x01\n      add\n      swap1\n      0x20\n      add\n      dup1\n      dup4\n      gt\n      tag_108\n      jumpi\n      dup3\n      swap1\n      sub\n      0x1f\n      and\n      dup3\n      add\n      swap2\n    tag_106:\n      pop\n      pop\n      pop\n      pop\n      pop\n      dup2\n      mstore\n      0x20\n      add\n      0x02\n      dup3\n      add\n      sload\n      dup2\n      mstore\n      pop\n      pop\n      swap1\n      pop\n        /* \"voting.sol\":2426:2427  c */\n      dup1\n        /* \"voting.sol\":2426:2430  c.id */\n      0x00\n      add\n      mload\n        /* \"voting.sol\":2432:2433  c */\n      dup2\n        /* \"voting.sol\":2432:2438  c.name */\n      0x20\n      add\n      mload\n        /* \"voting.sol\":2440:2441  c */\n      dup3\n        /* \"voting.sol\":2440:2451  c.votecount */\n      0x40\n      add\n      mload\n        /* \"voting.sol\":2418:2452  return (c.id, c.name, c.votecount) */\n      swap4\n      pop\n      swap4\n      pop\n      swap4\n      pop\n      pop\n        /* \"voting.sol\":2209:2460  function getCandidate(uint _id) public view returns (uint, string memory, uint) {\r... */\n      swap2\n      swap4\n      swap1\n      swap3\n      pop\n      jump\t// out\n        /* \"voting.sol\":884:1200  function addCandidate(string memory _name) public onlyAdmin {\r... */\n    tag_43:\n        /* \"voting.sol\":681:691  msg.sender */\n      caller\n        /* \"voting.sol\":672:691  admin == msg.sender */\n      0xffffffffffffffffffffffffffffffffffffffff\n      and\n        /* \"voting.sol\":672:677  admin */\n      0x00\n      dup1\n      sload\n      swap1\n      0x0100\n      exp\n      swap1\n      div\n      0xffffffffffffffffffffffffffffffffffffffff\n      and\n        /* \"voting.sol\":672:691  admin == msg.sender */\n      0xffffffffffffffffffffffffffffffffffffffff\n      and\n      eq\n        /* \"voting.sol\":664:730  require(admin == msg.sender, \"Only admin can perform this action\") */\n      tag_110\n      jumpi\n      mload(0x40)\n      0x08c379a000000000000000000000000000000000000000000000000000000000\n      dup2\n      mstore\n      0x04\n      add\n      tag_111\n      swap1\n      tag_78\n      jump\t// in\n    tag_111:\n      mload(0x40)\n      dup1\n      swap2\n      sub\n      swap1\n      revert\n    tag_110:\n        /* \"voting.sol\":964:977  votingStarted */\n      0x04\n      0x00\n      swap1\n      sload\n      swap1\n      0x0100\n      exp\n      swap1\n      div\n      0xff\n      and\n        /* \"voting.sol\":963:977  !votingStarted */\n      iszero\n        /* \"voting.sol\":955:1029  require(!votingStarted, \"Cannot add candidates after voting has started.\") */\n      tag_113\n      jumpi\n      mload(0x40)\n      0x08c379a000000000000000000000000000000000000000000000000000000000\n      dup2\n      mstore\n      0x04\n      add\n      tag_114\n      swap1\n      tag_115\n      jump\t// in\n    tag_114:\n      mload(0x40)\n      dup1\n      swap2\n      sub\n      swap1\n      revert\n    tag_113:\n        /* \"voting.sol\":1071:1108  Candidate(candidadtescount, _name, 0) */\n      mload(0x40)\n      dup1\n      0x60\n      add\n      0x40\n      mstore\n      dup1\n        /* \"voting.sol\":1081:1097  candidadtescount */\n      sload(0x01)\n        /* \"voting.sol\":1071:1108  Candidate(candidadtescount, _name, 0) */\n      dup2\n      mstore\n      0x20\n      add\n        /* \"voting.sol\":1099:1104  _name */\n      dup3\n        /* \"voting.sol\":1071:1108  Candidate(candidadtescount, _name, 0) */\n      dup2\n      mstore\n      0x20\n      add\n        /* \"voting.sol\":1106:1107  0 */\n      0x00\n        /* \"voting.sol\":1071:1108  Candidate(candidadtescount, _name, 0) */\n      dup2\n      mstore\n      pop\n        /* \"voting.sol\":1040:1050  candidates */\n      0x02\n        /* \"voting.sol\":1040:1068  candidates[candidadtescount] */\n      0x00\n        /* \"voting.sol\":1051:1067  candidadtescount */\n      sload(0x01)\n        /* \"voting.sol\":1040:1068  candidates[candidadtescount] */\n      dup2\n      mstore\n      0x20\n      add\n      swap1\n      dup2\n      mstore\n      0x20\n      add\n      0x00\n      keccak256\n        /* \"voting.sol\":1040:1108  candidates[candidadtescount] = Candidate(candidadtescount, _name, 0) */\n      0x00\n      dup3\n      add\n      mload\n      dup2\n      0x00\n      add\n      sstore\n      0x20\n      dup3\n      add\n      mload\n      dup2\n      0x01\n      add\n      swap1\n      dup1\n      mload\n      swap1\n      0x20\n      add\n      swap1\n      tag_116\n      swap3\n      swap2\n      swap1\n      tag_117\n      jump\t// in\n    tag_116:\n      pop\n      0x40\n      dup3\n      add\n      mload\n      dup2\n      0x02\n      add\n      sstore\n      swap1\n      pop\n      pop\n        /* \"voting.sol\":1124:1163  CandidateAdded(candidadtescount, _name) */\n      0xe83b2a43e7e82d975c8a0a6d2f045153c869e111136a34d1889ab7b598e396a3\n        /* \"voting.sol\":1139:1155  candidadtescount */\n      sload(0x01)\n        /* \"voting.sol\":1157:1162  _name */\n      dup3\n        /* \"voting.sol\":1124:1163  CandidateAdded(candidadtescount, _name) */\n      mload(0x40)\n      tag_118\n      swap3\n      swap2\n      swap1\n      tag_119\n      jump\t// in\n    tag_118:\n      mload(0x40)\n      dup1\n      swap2\n      sub\n      swap1\n      log1\n        /* \"voting.sol\":1174:1190  candidadtescount */\n      0x01\n      0x00\n        /* \"voting.sol\":1174:1192  candidadtescount++ */\n      dup2\n      sload\n      dup1\n      swap3\n      swap2\n      swap1\n      tag_120\n      swap1\n      tag_73\n      jump\t// in\n    tag_120:\n      swap2\n      swap1\n      pop\n      sstore\n      pop\n        /* \"voting.sol\":884:1200  function addCandidate(string memory _name) public onlyAdmin {\r... */\n      pop\n      jump\t// out\n        /* \"voting.sol\":345:370  bool public votingStarted */\n    tag_45:\n      0x04\n      0x00\n      swap1\n      sload\n      swap1\n      0x0100\n      exp\n      swap1\n      div\n      0xff\n      and\n      dup2\n      jump\t// out\n        /* \"voting.sol\":377:400  bool public votingEnded */\n    tag_48:\n      0x04\n      0x01\n      swap1\n      sload\n      swap1\n      0x0100\n      exp\n      swap1\n      div\n      0xff\n      and\n      dup2\n      jump\t// out\n        /* \"voting.sol\":210:238  uint public candidadtescount */\n    tag_51:\n      sload(0x01)\n      dup2\n      jump\t// out\n        /* \"voting.sol\":1677:1852  function endVoting() public onlyAdmin {\r... */\n    tag_55:\n        /* \"voting.sol\":681:691  msg.sender */\n      caller\n        /* \"voting.sol\":672:691  admin == msg.sender */\n      0xffffffffffffffffffffffffffffffffffffffff\n      and\n        /* \"voting.sol\":672:677  admin */\n      0x00\n      dup1\n      sload\n      swap1\n      0x0100\n      exp\n      swap1\n      div\n      0xffffffffffffffffffffffffffffffffffffffff\n      and\n        /* \"voting.sol\":672:691  admin == msg.sender */\n      0xffffffffffffffffffffffffffffffffffffffff\n      and\n      eq\n        /* \"voting.sol\":664:730  require(admin == msg.sender, \"Only admin can perform this action\") */\n      tag_122\n      jumpi\n      mload(0x40)\n      0x08c379a000000000000000000000000000000000000000000000000000000000\n      dup2\n      mstore\n      0x04\n      add\n      tag_123\n      swap1\n      tag_78\n      jump\t// in\n    tag_123:\n      mload(0x40)\n      dup1\n      swap2\n      sub\n      swap1\n      revert\n    tag_122:\n        /* \"voting.sol\":1734:1747  votingStarted */\n      0x04\n      0x00\n      swap1\n      sload\n      swap1\n      0x0100\n      exp\n      swap1\n      div\n      0xff\n      and\n        /* \"voting.sol\":1734:1763  votingStarted && !votingEnded */\n      dup1\n      iszero\n      tag_125\n      jumpi\n      pop\n        /* \"voting.sol\":1752:1763  votingEnded */\n      0x04\n      0x01\n      swap1\n      sload\n      swap1\n      0x0100\n      exp\n      swap1\n      div\n      0xff\n      and\n        /* \"voting.sol\":1751:1763  !votingEnded */\n      iszero\n        /* \"voting.sol\":1734:1763  votingStarted && !votingEnded */\n    tag_125:\n        /* \"voting.sol\":1726:1786  require(votingStarted && !votingEnded, \"Voting not active.\") */\n      tag_126\n      jumpi\n      mload(0x40)\n      0x08c379a000000000000000000000000000000000000000000000000000000000\n      dup2\n      mstore\n      0x04\n      add\n      tag_127\n      swap1\n      tag_128\n      jump\t// in\n    tag_127:\n      mload(0x40)\n      dup1\n      swap2\n      sub\n      swap1\n      revert\n    tag_126:\n        /* \"voting.sol\":1811:1815  true */\n      0x01\n        /* \"voting.sol\":1797:1808  votingEnded */\n      0x04\n      0x01\n        /* \"voting.sol\":1797:1815  votingEnded = true */\n      0x0100\n      exp\n      dup2\n      sload\n      dup2\n      0xff\n      mul\n      not\n      and\n      swap1\n      dup4\n      iszero\n      iszero\n      mul\n      or\n      swap1\n      sstore\n      pop\n        /* \"voting.sol\":1831:1844  VotingEnded() */\n      0x7a19ed057db79e3c2fa0b97a54b43bef4fce74b31bb6c01af514b9a18a7f70ab\n      mload(0x40)\n      mload(0x40)\n      dup1\n      swap2\n      sub\n      swap1\n      log1\n        /* \"voting.sol\":1677:1852  function endVoting() public onlyAdmin {\r... */\n      jump\t// out\n        /* \"voting.sol\":83:103  address public admin */\n    tag_57:\n      0x00\n      dup1\n      sload\n      swap1\n      0x0100\n      exp\n      swap1\n      div\n      0xffffffffffffffffffffffffffffffffffffffff\n      and\n      dup2\n      jump\t// out\n    tag_87:\n      pop\n      dup1\n      sload\n      tag_129\n      swap1\n      tag_96\n      jump\t// in\n    tag_129:\n      0x00\n      dup3\n      sstore\n      dup1\n      0x1f\n      lt\n      tag_131\n      jumpi\n      pop\n      jump(tag_130)\n    tag_131:\n      0x1f\n      add\n      0x20\n      swap1\n      div\n      swap1\n      0x00\n      mstore\n      keccak256(0x00, 0x20)\n      swap1\n      dup2\n      add\n      swap1\n      tag_132\n      swap2\n      swap1\n      tag_133\n      jump\t// in\n    tag_132:\n    tag_130:\n      pop\n      jump\t// out\n    tag_117:\n      dup3\n      dup1\n      sload\n      tag_134\n      swap1\n      tag_96\n      jump\t// in\n    tag_134:\n      swap1\n      0x00\n      mstore\n      keccak256(0x00, 0x20)\n      swap1\n      0x1f\n      add\n      0x20\n      swap1\n      div\n      dup2\n      add\n      swap3\n      dup3\n      tag_136\n      jumpi\n      0x00\n      dup6\n      sstore\n      jump(tag_135)\n    tag_136:\n      dup3\n      0x1f\n      lt\n      tag_137\n      jumpi\n      dup1\n      mload\n      not(0xff)\n      and\n      dup4\n      dup1\n      add\n      or\n      dup6\n      sstore\n      jump(tag_135)\n    tag_137:\n      dup3\n      dup1\n      add\n      0x01\n      add\n      dup6\n      sstore\n      dup3\n      iszero\n      tag_135\n      jumpi\n      swap2\n      dup3\n      add\n    tag_138:\n      dup3\n      dup2\n      gt\n      iszero\n      tag_139\n      jumpi\n      dup3\n      mload\n      dup3\n      sstore\n      swap2\n      0x20\n      add\n      swap2\n      swap1\n      0x01\n      add\n      swap1\n      jump(tag_138)\n    tag_139:\n    tag_135:\n      pop\n      swap1\n      pop\n      tag_140\n      swap2\n      swap1\n      tag_133\n      jump\t// in\n    tag_140:\n      pop\n      swap1\n      jump\t// out\n    tag_133:\n    tag_141:\n      dup1\n      dup3\n      gt\n      iszero\n      tag_142\n      jumpi\n      0x00\n      dup2\n      0x00\n      swap1\n      sstore\n      pop\n      0x01\n      add\n      jump(tag_141)\n    tag_142:\n      pop\n      swap1\n      jump\t// out\n        /* \"#utility.yul\":7:352   */\n    tag_144:\n        /* \"#utility.yul\":85:90   */\n      0x00\n        /* \"#utility.yul\":110:176   */\n      tag_146\n        /* \"#utility.yul\":126:175   */\n      tag_147\n        /* \"#utility.yul\":168:174   */\n      dup5\n        /* \"#utility.yul\":126:175   */\n      tag_148\n      jump\t// in\n    tag_147:\n        /* \"#utility.yul\":110:176   */\n      tag_149\n      jump\t// in\n    tag_146:\n        /* \"#utility.yul\":101:176   */\n      swap1\n      pop\n        /* \"#utility.yul\":199:205   */\n      dup3\n        /* \"#utility.yul\":192:197   */\n      dup2\n        /* \"#utility.yul\":185:206   */\n      mstore\n        /* \"#utility.yul\":237:241   */\n      0x20\n        /* \"#utility.yul\":230:235   */\n      dup2\n        /* \"#utility.yul\":226:242   */\n      add\n        /* \"#utility.yul\":275:278   */\n      dup5\n        /* \"#utility.yul\":266:272   */\n      dup5\n        /* \"#utility.yul\":261:264   */\n      dup5\n        /* \"#utility.yul\":257:273   */\n      add\n        /* \"#utility.yul\":254:279   */\n      gt\n        /* \"#utility.yul\":251:253   */\n      iszero\n      tag_150\n      jumpi\n        /* \"#utility.yul\":292:293   */\n      0x00\n        /* \"#utility.yul\":289:290   */\n      dup1\n        /* \"#utility.yul\":282:294   */\n      revert\n        /* \"#utility.yul\":251:253   */\n    tag_150:\n        /* \"#utility.yul\":305:346   */\n      tag_151\n        /* \"#utility.yul\":339:345   */\n      dup5\n        /* \"#utility.yul\":334:337   */\n      dup3\n        /* \"#utility.yul\":329:332   */\n      dup6\n        /* \"#utility.yul\":305:346   */\n      tag_152\n      jump\t// in\n    tag_151:\n        /* \"#utility.yul\":91:352   */\n      pop\n      swap4\n      swap3\n      pop\n      pop\n      pop\n      jump\t// out\n        /* \"#utility.yul\":358:497   */\n    tag_153:\n        /* \"#utility.yul\":404:409   */\n      0x00\n        /* \"#utility.yul\":442:448   */\n      dup2\n        /* \"#utility.yul\":429:449   */\n      calldataload\n        /* \"#utility.yul\":420:449   */\n      swap1\n      pop\n        /* \"#utility.yul\":458:491   */\n      tag_155\n        /* \"#utility.yul\":485:490   */\n      dup2\n        /* \"#utility.yul\":458:491   */\n      tag_156\n      jump\t// in\n    tag_155:\n        /* \"#utility.yul\":410:497   */\n      swap3\n      swap2\n      pop\n      pop\n      jump\t// out\n        /* \"#utility.yul\":517:790   */\n    tag_157:\n        /* \"#utility.yul\":573:578   */\n      0x00\n        /* \"#utility.yul\":622:625   */\n      dup3\n        /* \"#utility.yul\":615:619   */\n      0x1f\n        /* \"#utility.yul\":607:613   */\n      dup4\n        /* \"#utility.yul\":603:620   */\n      add\n        /* \"#utility.yul\":599:626   */\n      slt\n        /* \"#utility.yul\":589:591   */\n      tag_159\n      jumpi\n        /* \"#utility.yul\":640:641   */\n      0x00\n        /* \"#utility.yul\":637:638   */\n      dup1\n        /* \"#utility.yul\":630:642   */\n      revert\n        /* \"#utility.yul\":589:591   */\n    tag_159:\n        /* \"#utility.yul\":680:686   */\n      dup2\n        /* \"#utility.yul\":667:687   */\n      calldataload\n        /* \"#utility.yul\":705:784   */\n      tag_160\n        /* \"#utility.yul\":780:783   */\n      dup5\n        /* \"#utility.yul\":772:778   */\n      dup3\n        /* \"#utility.yul\":765:769   */\n      0x20\n        /* \"#utility.yul\":757:763   */\n      dup7\n        /* \"#utility.yul\":753:770   */\n      add\n        /* \"#utility.yul\":705:784   */\n      tag_144\n      jump\t// in\n    tag_160:\n        /* \"#utility.yul\":696:784   */\n      swap2\n      pop\n        /* \"#utility.yul\":579:790   */\n      pop\n      swap3\n      swap2\n      pop\n      pop\n      jump\t// out\n        /* \"#utility.yul\":796:935   */\n    tag_161:\n        /* \"#utility.yul\":842:847   */\n      0x00\n        /* \"#utility.yul\":880:886   */\n      dup2\n        /* \"#utility.yul\":867:887   */\n      calldataload\n        /* \"#utility.yul\":858:887   */\n      swap1\n      pop\n        /* \"#utility.yul\":896:929   */\n      tag_163\n        /* \"#utility.yul\":923:928   */\n      dup2\n        /* \"#utility.yul\":896:929   */\n      tag_164\n      jump\t// in\n    tag_163:\n        /* \"#utility.yul\":848:935   */\n      swap3\n      swap2\n      pop\n      pop\n      jump\t// out\n        /* \"#utility.yul\":941:1203   */\n    tag_25:\n        /* \"#utility.yul\":1000:1006   */\n      0x00\n        /* \"#utility.yul\":1049:1051   */\n      0x20\n        /* \"#utility.yul\":1037:1046   */\n      dup3\n        /* \"#utility.yul\":1028:1035   */\n      dup5\n        /* \"#utility.yul\":1024:1047   */\n      sub\n        /* \"#utility.yul\":1020:1052   */\n      slt\n        /* \"#utility.yul\":1017:1019   */\n      iszero\n      tag_166\n      jumpi\n        /* \"#utility.yul\":1065:1066   */\n      0x00\n        /* \"#utility.yul\":1062:1063   */\n      dup1\n        /* \"#utility.yul\":1055:1067   */\n      revert\n        /* \"#utility.yul\":1017:1019   */\n    tag_166:\n        /* \"#utility.yul\":1108:1109   */\n      0x00\n        /* \"#utility.yul\":1133:1186   */\n      tag_167\n        /* \"#utility.yul\":1178:1185   */\n      dup5\n        /* \"#utility.yul\":1169:1175   */\n      dup3\n        /* \"#utility.yul\":1158:1167   */\n      dup6\n        /* \"#utility.yul\":1154:1176   */\n      add\n        /* \"#utility.yul\":1133:1186   */\n      tag_153\n      jump\t// in\n    tag_167:\n        /* \"#utility.yul\":1123:1186   */\n      swap2\n      pop\n        /* \"#utility.yul\":1079:1196   */\n      pop\n        /* \"#utility.yul\":1007:1203   */\n      swap3\n      swap2\n      pop\n      pop\n      jump\t// out\n        /* \"#utility.yul\":1209:1584   */\n    tag_42:\n        /* \"#utility.yul\":1278:1284   */\n      0x00\n        /* \"#utility.yul\":1327:1329   */\n      0x20\n        /* \"#utility.yul\":1315:1324   */\n      dup3\n        /* \"#utility.yul\":1306:1313   */\n      dup5\n        /* \"#utility.yul\":1302:1325   */\n      sub\n        /* \"#utility.yul\":1298:1330   */\n      slt\n        /* \"#utility.yul\":1295:1297   */\n      iszero\n      tag_169\n      jumpi\n        /* \"#utility.yul\":1343:1344   */\n      0x00\n        /* \"#utility.yul\":1340:1341   */\n      dup1\n        /* \"#utility.yul\":1333:1345   */\n      revert\n        /* \"#utility.yul\":1295:1297   */\n    tag_169:\n        /* \"#utility.yul\":1414:1415   */\n      0x00\n        /* \"#utility.yul\":1403:1412   */\n      dup3\n        /* \"#utility.yul\":1399:1416   */\n      add\n        /* \"#utility.yul\":1386:1417   */\n      calldataload\n        /* \"#utility.yul\":1444:1462   */\n      0xffffffffffffffff\n        /* \"#utility.yul\":1436:1442   */\n      dup2\n        /* \"#utility.yul\":1433:1463   */\n      gt\n        /* \"#utility.yul\":1430:1432   */\n      iszero\n      tag_170\n      jumpi\n        /* \"#utility.yul\":1476:1477   */\n      0x00\n        /* \"#utility.yul\":1473:1474   */\n      dup1\n        /* \"#utility.yul\":1466:1478   */\n      revert\n        /* \"#utility.yul\":1430:1432   */\n    tag_170:\n        /* \"#utility.yul\":1504:1567   */\n      tag_171\n        /* \"#utility.yul\":1559:1566   */\n      dup5\n        /* \"#utility.yul\":1550:1556   */\n      dup3\n        /* \"#utility.yul\":1539:1548   */\n      dup6\n        /* \"#utility.yul\":1535:1557   */\n      add\n        /* \"#utility.yul\":1504:1567   */\n      tag_157\n      jump\t// in\n    tag_171:\n        /* \"#utility.yul\":1494:1567   */\n      swap2\n      pop\n        /* \"#utility.yul\":1357:1577   */\n      pop\n        /* \"#utility.yul\":1285:1584   */\n      swap3\n      swap2\n      pop\n      pop\n      jump\t// out\n        /* \"#utility.yul\":1590:1852   */\n    tag_18:\n        /* \"#utility.yul\":1649:1655   */\n      0x00\n        /* \"#utility.yul\":1698:1700   */\n      0x20\n        /* \"#utility.yul\":1686:1695   */\n      dup3\n        /* \"#utility.yul\":1677:1684   */\n      dup5\n        /* \"#utility.yul\":1673:1696   */\n      sub\n        /* \"#utility.yul\":1669:1701   */\n      slt\n        /* \"#utility.yul\":1666:1668   */\n      iszero\n      tag_173\n      jumpi\n        /* \"#utility.yul\":1714:1715   */\n      0x00\n        /* \"#utility.yul\":1711:1712   */\n      dup1\n        /* \"#utility.yul\":1704:1716   */\n      revert\n        /* \"#utility.yul\":1666:1668   */\n    tag_173:\n        /* \"#utility.yul\":1757:1758   */\n      0x00\n        /* \"#utility.yul\":1782:1835   */\n      tag_174\n        /* \"#utility.yul\":1827:1834   */\n      dup5\n        /* \"#utility.yul\":1818:1824   */\n      dup3\n        /* \"#utility.yul\":1807:1816   */\n      dup6\n        /* \"#utility.yul\":1803:1825   */\n      add\n        /* \"#utility.yul\":1782:1835   */\n      tag_161\n      jump\t// in\n    tag_174:\n        /* \"#utility.yul\":1772:1835   */\n      swap2\n      pop\n        /* \"#utility.yul\":1728:1845   */\n      pop\n        /* \"#utility.yul\":1656:1852   */\n      swap3\n      swap2\n      pop\n      pop\n      jump\t// out\n        /* \"#utility.yul\":1858:1976   */\n    tag_175:\n        /* \"#utility.yul\":1945:1969   */\n      tag_177\n        /* \"#utility.yul\":1963:1968   */\n      dup2\n        /* \"#utility.yul\":1945:1969   */\n      tag_178\n      jump\t// in\n    tag_177:\n        /* \"#utility.yul\":1940:1943   */\n      dup3\n        /* \"#utility.yul\":1933:1970   */\n      mstore\n        /* \"#utility.yul\":1923:1976   */\n      pop\n      pop\n      jump\t// out\n        /* \"#utility.yul\":1982:2091   */\n    tag_179:\n        /* \"#utility.yul\":2063:2084   */\n      tag_181\n        /* \"#utility.yul\":2078:2083   */\n      dup2\n        /* \"#utility.yul\":2063:2084   */\n      tag_182\n      jump\t// in\n    tag_181:\n        /* \"#utility.yul\":2058:2061   */\n      dup3\n        /* \"#utility.yul\":2051:2085   */\n      mstore\n        /* \"#utility.yul\":2041:2091   */\n      pop\n      pop\n      jump\t// out\n        /* \"#utility.yul\":2097:2461   */\n    tag_183:\n        /* \"#utility.yul\":2185:2188   */\n      0x00\n        /* \"#utility.yul\":2213:2252   */\n      tag_185\n        /* \"#utility.yul\":2246:2251   */\n      dup3\n        /* \"#utility.yul\":2213:2252   */\n      tag_186\n      jump\t// in\n    tag_185:\n        /* \"#utility.yul\":2268:2339   */\n      tag_187\n        /* \"#utility.yul\":2332:2338   */\n      dup2\n        /* \"#utility.yul\":2327:2330   */\n      dup6\n        /* \"#utility.yul\":2268:2339   */\n      tag_188\n      jump\t// in\n    tag_187:\n        /* \"#utility.yul\":2261:2339   */\n      swap4\n      pop\n        /* \"#utility.yul\":2348:2400   */\n      tag_189\n        /* \"#utility.yul\":2393:2399   */\n      dup2\n        /* \"#utility.yul\":2388:2391   */\n      dup6\n        /* \"#utility.yul\":2381:2385   */\n      0x20\n        /* \"#utility.yul\":2374:2379   */\n      dup7\n        /* \"#utility.yul\":2370:2386   */\n      add\n        /* \"#utility.yul\":2348:2400   */\n      tag_190\n      jump\t// in\n    tag_189:\n        /* \"#utility.yul\":2425:2454   */\n      tag_191\n        /* \"#utility.yul\":2447:2453   */\n      dup2\n        /* \"#utility.yul\":2425:2454   */\n      tag_192\n      jump\t// in\n    tag_191:\n        /* \"#utility.yul\":2420:2423   */\n      dup5\n        /* \"#utility.yul\":2416:2455   */\n      add\n        /* \"#utility.yul\":2409:2455   */\n      swap2\n      pop\n        /* \"#utility.yul\":2189:2461   */\n      pop\n      swap3\n      swap2\n      pop\n      pop\n      jump\t// out\n        /* \"#utility.yul\":2467:2833   */\n    tag_193:\n        /* \"#utility.yul\":2609:2612   */\n      0x00\n        /* \"#utility.yul\":2630:2697   */\n      tag_195\n        /* \"#utility.yul\":2694:2696   */\n      0x32\n        /* \"#utility.yul\":2689:2692   */\n      dup4\n        /* \"#utility.yul\":2630:2697   */\n      tag_188\n      jump\t// in\n    tag_195:\n        /* \"#utility.yul\":2623:2697   */\n      swap2\n      pop\n        /* \"#utility.yul\":2706:2799   */\n      tag_196\n        /* \"#utility.yul\":2795:2798   */\n      dup3\n        /* \"#utility.yul\":2706:2799   */\n      tag_197\n      jump\t// in\n    tag_196:\n        /* \"#utility.yul\":2824:2826   */\n      0x40\n        /* \"#utility.yul\":2819:2822   */\n      dup3\n        /* \"#utility.yul\":2815:2827   */\n      add\n        /* \"#utility.yul\":2808:2827   */\n      swap1\n      pop\n        /* \"#utility.yul\":2613:2833   */\n      swap2\n      swap1\n      pop\n      jump\t// out\n        /* \"#utility.yul\":2839:3205   */\n    tag_198:\n        /* \"#utility.yul\":2981:2984   */\n      0x00\n        /* \"#utility.yul\":3002:3069   */\n      tag_200\n        /* \"#utility.yul\":3066:3068   */\n      0x17\n        /* \"#utility.yul\":3061:3064   */\n      dup4\n        /* \"#utility.yul\":3002:3069   */\n      tag_188\n      jump\t// in\n    tag_200:\n        /* \"#utility.yul\":2995:3069   */\n      swap2\n      pop\n        /* \"#utility.yul\":3078:3171   */\n      tag_201\n        /* \"#utility.yul\":3167:3170   */\n      dup3\n        /* \"#utility.yul\":3078:3171   */\n      tag_202\n      jump\t// in\n    tag_201:\n        /* \"#utility.yul\":3196:3198   */\n      0x20\n        /* \"#utility.yul\":3191:3194   */\n      dup3\n        /* \"#utility.yul\":3187:3199   */\n      add\n        /* \"#utility.yul\":3180:3199   */\n      swap1\n      pop\n        /* \"#utility.yul\":2985:3205   */\n      swap2\n      swap1\n      pop\n      jump\t// out\n        /* \"#utility.yul\":3211:3577   */\n    tag_203:\n        /* \"#utility.yul\":3353:3356   */\n      0x00\n        /* \"#utility.yul\":3374:3441   */\n      tag_205\n        /* \"#utility.yul\":3438:3440   */\n      0x17\n        /* \"#utility.yul\":3433:3436   */\n      dup4\n        /* \"#utility.yul\":3374:3441   */\n      tag_188\n      jump\t// in\n    tag_205:\n        /* \"#utility.yul\":3367:3441   */\n      swap2\n      pop\n        /* \"#utility.yul\":3450:3543   */\n      tag_206\n        /* \"#utility.yul\":3539:3542   */\n      dup3\n        /* \"#utility.yul\":3450:3543   */\n      tag_207\n      jump\t// in\n    tag_206:\n        /* \"#utility.yul\":3568:3570   */\n      0x20\n        /* \"#utility.yul\":3563:3566   */\n      dup3\n        /* \"#utility.yul\":3559:3571   */\n      add\n        /* \"#utility.yul\":3552:3571   */\n      swap1\n      pop\n        /* \"#utility.yul\":3357:3577   */\n      swap2\n      swap1\n      pop\n      jump\t// out\n        /* \"#utility.yul\":3583:3949   */\n    tag_208:\n        /* \"#utility.yul\":3725:3728   */\n      0x00\n        /* \"#utility.yul\":3746:3813   */\n      tag_210\n        /* \"#utility.yul\":3810:3812   */\n      0x15\n        /* \"#utility.yul\":3805:3808   */\n      dup4\n        /* \"#utility.yul\":3746:3813   */\n      tag_188\n      jump\t// in\n    tag_210:\n        /* \"#utility.yul\":3739:3813   */\n      swap2\n      pop\n        /* \"#utility.yul\":3822:3915   */\n      tag_211\n        /* \"#utility.yul\":3911:3914   */\n      dup3\n        /* \"#utility.yul\":3822:3915   */\n      tag_212\n      jump\t// in\n    tag_211:\n        /* \"#utility.yul\":3940:3942   */\n      0x20\n        /* \"#utility.yul\":3935:3938   */\n      dup3\n        /* \"#utility.yul\":3931:3943   */\n      add\n        /* \"#utility.yul\":3924:3943   */\n      swap1\n      pop\n        /* \"#utility.yul\":3729:3949   */\n      swap2\n      swap1\n      pop\n      jump\t// out\n        /* \"#utility.yul\":3955:4321   */\n    tag_213:\n        /* \"#utility.yul\":4097:4100   */\n      0x00\n        /* \"#utility.yul\":4118:4185   */\n      tag_215\n        /* \"#utility.yul\":4182:4184   */\n      0x2f\n        /* \"#utility.yul\":4177:4180   */\n      dup4\n        /* \"#utility.yul\":4118:4185   */\n      tag_188\n      jump\t// in\n    tag_215:\n        /* \"#utility.yul\":4111:4185   */\n      swap2\n      pop\n        /* \"#utility.yul\":4194:4287   */\n      tag_216\n        /* \"#utility.yul\":4283:4286   */\n      dup3\n        /* \"#utility.yul\":4194:4287   */\n      tag_217\n      jump\t// in\n    tag_216:\n        /* \"#utility.yul\":4312:4314   */\n      0x40\n        /* \"#utility.yul\":4307:4310   */\n      dup3\n        /* \"#utility.yul\":4303:4315   */\n      add\n        /* \"#utility.yul\":4296:4315   */\n      swap1\n      pop\n        /* \"#utility.yul\":4101:4321   */\n      swap2\n      swap1\n      pop\n      jump\t// out\n        /* \"#utility.yul\":4327:4693   */\n    tag_218:\n        /* \"#utility.yul\":4469:4472   */\n      0x00\n        /* \"#utility.yul\":4490:4557   */\n      tag_220\n        /* \"#utility.yul\":4554:4556   */\n      0x22\n        /* \"#utility.yul\":4549:4552   */\n      dup4\n        /* \"#utility.yul\":4490:4557   */\n      tag_188\n      jump\t// in\n    tag_220:\n        /* \"#utility.yul\":4483:4557   */\n      swap2\n      pop\n        /* \"#utility.yul\":4566:4659   */\n      tag_221\n        /* \"#utility.yul\":4655:4658   */\n      dup3\n        /* \"#utility.yul\":4566:4659   */\n      tag_222\n      jump\t// in\n    tag_221:\n        /* \"#utility.yul\":4684:4686   */\n      0x40\n        /* \"#utility.yul\":4679:4682   */\n      dup3\n        /* \"#utility.yul\":4675:4687   */\n      add\n        /* \"#utility.yul\":4668:4687   */\n      swap1\n      pop\n        /* \"#utility.yul\":4473:4693   */\n      swap2\n      swap1\n      pop\n      jump\t// out\n        /* \"#utility.yul\":4699:5065   */\n    tag_223:\n        /* \"#utility.yul\":4841:4844   */\n      0x00\n        /* \"#utility.yul\":4862:4929   */\n      tag_225\n        /* \"#utility.yul\":4926:4928   */\n      0x12\n        /* \"#utility.yul\":4921:4924   */\n      dup4\n        /* \"#utility.yul\":4862:4929   */\n      tag_188\n      jump\t// in\n    tag_225:\n        /* \"#utility.yul\":4855:4929   */\n      swap2\n      pop\n        /* \"#utility.yul\":4938:5031   */\n      tag_226\n        /* \"#utility.yul\":5027:5030   */\n      dup3\n        /* \"#utility.yul\":4938:5031   */\n      tag_227\n      jump\t// in\n    tag_226:\n        /* \"#utility.yul\":5056:5058   */\n      0x20\n        /* \"#utility.yul\":5051:5054   */\n      dup3\n        /* \"#utility.yul\":5047:5059   */\n      add\n        /* \"#utility.yul\":5040:5059   */\n      swap1\n      pop\n        /* \"#utility.yul\":4845:5065   */\n      swap2\n      swap1\n      pop\n      jump\t// out\n        /* \"#utility.yul\":5071:5437   */\n    tag_228:\n        /* \"#utility.yul\":5213:5216   */\n      0x00\n        /* \"#utility.yul\":5234:5301   */\n      tag_230\n        /* \"#utility.yul\":5298:5300   */\n      0x19\n        /* \"#utility.yul\":5293:5296   */\n      dup4\n        /* \"#utility.yul\":5234:5301   */\n      tag_188\n      jump\t// in\n    tag_230:\n        /* \"#utility.yul\":5227:5301   */\n      swap2\n      pop\n        /* \"#utility.yul\":5310:5403   */\n      tag_231\n        /* \"#utility.yul\":5399:5402   */\n      dup3\n        /* \"#utility.yul\":5310:5403   */\n      tag_232\n      jump\t// in\n    tag_231:\n        /* \"#utility.yul\":5428:5430   */\n      0x20\n        /* \"#utility.yul\":5423:5426   */\n      dup3\n        /* \"#utility.yul\":5419:5431   */\n      add\n        /* \"#utility.yul\":5412:5431   */\n      swap1\n      pop\n        /* \"#utility.yul\":5217:5437   */\n      swap2\n      swap1\n      pop\n      jump\t// out\n        /* \"#utility.yul\":5443:5809   */\n    tag_233:\n        /* \"#utility.yul\":5585:5588   */\n      0x00\n        /* \"#utility.yul\":5606:5673   */\n      tag_235\n        /* \"#utility.yul\":5670:5672   */\n      0x15\n        /* \"#utility.yul\":5665:5668   */\n      dup4\n        /* \"#utility.yul\":5606:5673   */\n      tag_188\n      jump\t// in\n    tag_235:\n        /* \"#utility.yul\":5599:5673   */\n      swap2\n      pop\n        /* \"#utility.yul\":5682:5775   */\n      tag_236\n        /* \"#utility.yul\":5771:5774   */\n      dup3\n        /* \"#utility.yul\":5682:5775   */\n      tag_237\n      jump\t// in\n    tag_236:\n        /* \"#utility.yul\":5800:5802   */\n      0x20\n        /* \"#utility.yul\":5795:5798   */\n      dup3\n        /* \"#utility.yul\":5791:5803   */\n      add\n        /* \"#utility.yul\":5784:5803   */\n      swap1\n      pop\n        /* \"#utility.yul\":5589:5809   */\n      swap2\n      swap1\n      pop\n      jump\t// out\n        /* \"#utility.yul\":5815:5933   */\n    tag_238:\n        /* \"#utility.yul\":5902:5926   */\n      tag_240\n        /* \"#utility.yul\":5920:5925   */\n      dup2\n        /* \"#utility.yul\":5902:5926   */\n      tag_241\n      jump\t// in\n    tag_240:\n        /* \"#utility.yul\":5897:5900   */\n      dup3\n        /* \"#utility.yul\":5890:5927   */\n      mstore\n        /* \"#utility.yul\":5880:5933   */\n      pop\n      pop\n      jump\t// out\n        /* \"#utility.yul\":5939:6161   */\n    tag_59:\n        /* \"#utility.yul\":6032:6036   */\n      0x00\n        /* \"#utility.yul\":6070:6072   */\n      0x20\n        /* \"#utility.yul\":6059:6068   */\n      dup3\n        /* \"#utility.yul\":6055:6073   */\n      add\n        /* \"#utility.yul\":6047:6073   */\n      swap1\n      pop\n        /* \"#utility.yul\":6083:6154   */\n      tag_243\n        /* \"#utility.yul\":6151:6152   */\n      0x00\n        /* \"#utility.yul\":6140:6149   */\n      dup4\n        /* \"#utility.yul\":6136:6153   */\n      add\n        /* \"#utility.yul\":6127:6133   */\n      dup5\n        /* \"#utility.yul\":6083:6154   */\n      tag_175\n      jump\t// in\n    tag_243:\n        /* \"#utility.yul\":6037:6161   */\n      swap3\n      swap2\n      pop\n      pop\n      jump\t// out\n        /* \"#utility.yul\":6167:6377   */\n    tag_28:\n        /* \"#utility.yul\":6254:6258   */\n      0x00\n        /* \"#utility.yul\":6292:6294   */\n      0x20\n        /* \"#utility.yul\":6281:6290   */\n      dup3\n        /* \"#utility.yul\":6277:6295   */\n      add\n        /* \"#utility.yul\":6269:6295   */\n      swap1\n      pop\n        /* \"#utility.yul\":6305:6370   */\n      tag_245\n        /* \"#utility.yul\":6367:6368   */\n      0x00\n        /* \"#utility.yul\":6356:6365   */\n      dup4\n        /* \"#utility.yul\":6352:6369   */\n      add\n        /* \"#utility.yul\":6343:6349   */\n      dup5\n        /* \"#utility.yul\":6305:6370   */\n      tag_179\n      jump\t// in\n    tag_245:\n        /* \"#utility.yul\":6259:6377   */\n      swap3\n      swap2\n      pop\n      pop\n      jump\t// out\n        /* \"#utility.yul\":6383:6802   */\n    tag_82:\n        /* \"#utility.yul\":6549:6553   */\n      0x00\n        /* \"#utility.yul\":6587:6589   */\n      0x20\n        /* \"#utility.yul\":6576:6585   */\n      dup3\n        /* \"#utility.yul\":6572:6590   */\n      add\n        /* \"#utility.yul\":6564:6590   */\n      swap1\n      pop\n        /* \"#utility.yul\":6636:6645   */\n      dup2\n        /* \"#utility.yul\":6630:6634   */\n      dup2\n        /* \"#utility.yul\":6626:6646   */\n      sub\n        /* \"#utility.yul\":6622:6623   */\n      0x00\n        /* \"#utility.yul\":6611:6620   */\n      dup4\n        /* \"#utility.yul\":6607:6624   */\n      add\n        /* \"#utility.yul\":6600:6647   */\n      mstore\n        /* \"#utility.yul\":6664:6795   */\n      tag_247\n        /* \"#utility.yul\":6790:6794   */\n      dup2\n        /* \"#utility.yul\":6664:6795   */\n      tag_193\n      jump\t// in\n    tag_247:\n        /* \"#utility.yul\":6656:6795   */\n      swap1\n      pop\n        /* \"#utility.yul\":6554:6802   */\n      swap2\n      swap1\n      pop\n      jump\t// out\n        /* \"#utility.yul\":6808:7227   */\n    tag_68:\n        /* \"#utility.yul\":6974:6978   */\n      0x00\n        /* \"#utility.yul\":7012:7014   */\n      0x20\n        /* \"#utility.yul\":7001:7010   */\n      dup3\n        /* \"#utility.yul\":6997:7015   */\n      add\n        /* \"#utility.yul\":6989:7015   */\n      swap1\n      pop\n        /* \"#utility.yul\":7061:7070   */\n      dup2\n        /* \"#utility.yul\":7055:7059   */\n      dup2\n        /* \"#utility.yul\":7051:7071   */\n      sub\n        /* \"#utility.yul\":7047:7048   */\n      0x00\n        /* \"#utility.yul\":7036:7045   */\n      dup4\n        /* \"#utility.yul\":7032:7049   */\n      add\n        /* \"#utility.yul\":7025:7072   */\n      mstore\n        /* \"#utility.yul\":7089:7220   */\n      tag_249\n        /* \"#utility.yul\":7215:7219   */\n      dup2\n        /* \"#utility.yul\":7089:7220   */\n      tag_198\n      jump\t// in\n    tag_249:\n        /* \"#utility.yul\":7081:7220   */\n      swap1\n      pop\n        /* \"#utility.yul\":6979:7227   */\n      swap2\n      swap1\n      pop\n      jump\t// out\n        /* \"#utility.yul\":7233:7652   */\n    tag_94:\n        /* \"#utility.yul\":7399:7403   */\n      0x00\n        /* \"#utility.yul\":7437:7439   */\n      0x20\n        /* \"#utility.yul\":7426:7435   */\n      dup3\n        /* \"#utility.yul\":7422:7440   */\n      add\n        /* \"#utility.yul\":7414:7440   */\n      swap1\n      pop\n        /* \"#utility.yul\":7486:7495   */\n      dup2\n        /* \"#utility.yul\":7480:7484   */\n      dup2\n        /* \"#utility.yul\":7476:7496   */\n      sub\n        /* \"#utility.yul\":7472:7473   */\n      0x00\n        /* \"#utility.yul\":7461:7470   */\n      dup4\n        /* \"#utility.yul\":7457:7474   */\n      add\n        /* \"#utility.yul\":7450:7497   */\n      mstore\n        /* \"#utility.yul\":7514:7645   */\n      tag_251\n        /* \"#utility.yul\":7640:7644   */\n      dup2\n        /* \"#utility.yul\":7514:7645   */\n      tag_203\n      jump\t// in\n    tag_251:\n        /* \"#utility.yul\":7506:7645   */\n      swap1\n      pop\n        /* \"#utility.yul\":7404:7652   */\n      swap2\n      swap1\n      pop\n      jump\t// out\n        /* \"#utility.yul\":7658:8077   */\n    tag_64:\n        /* \"#utility.yul\":7824:7828   */\n      0x00\n        /* \"#utility.yul\":7862:7864   */\n      0x20\n        /* \"#utility.yul\":7851:7860   */\n      dup3\n        /* \"#utility.yul\":7847:7865   */\n      add\n        /* \"#utility.yul\":7839:7865   */\n      swap1\n      pop\n        /* \"#utility.yul\":7911:7920   */\n      dup2\n        /* \"#utility.yul\":7905:7909   */\n      dup2\n        /* \"#utility.yul\":7901:7921   */\n      sub\n        /* \"#utility.yul\":7897:7898   */\n      0x00\n        /* \"#utility.yul\":7886:7895   */\n      dup4\n        /* \"#utility.yul\":7882:7899   */\n      add\n        /* \"#utility.yul\":7875:7922   */\n      mstore\n        /* \"#utility.yul\":7939:8070   */\n      tag_253\n        /* \"#utility.yul\":8065:8069   */\n      dup2\n        /* \"#utility.yul\":7939:8070   */\n      tag_208\n      jump\t// in\n    tag_253:\n        /* \"#utility.yul\":7931:8070   */\n      swap1\n      pop\n        /* \"#utility.yul\":7829:8077   */\n      swap2\n      swap1\n      pop\n      jump\t// out\n        /* \"#utility.yul\":8083:8502   */\n    tag_115:\n        /* \"#utility.yul\":8249:8253   */\n      0x00\n        /* \"#utility.yul\":8287:8289   */\n      0x20\n        /* \"#utility.yul\":8276:8285   */\n      dup3\n        /* \"#utility.yul\":8272:8290   */\n      add\n        /* \"#utility.yul\":8264:8290   */\n      swap1\n      pop\n        /* \"#utility.yul\":8336:8345   */\n      dup2\n        /* \"#utility.yul\":8330:8334   */\n      dup2\n        /* \"#utility.yul\":8326:8346   */\n      sub\n        /* \"#utility.yul\":8322:8323   */\n      0x00\n        /* \"#utility.yul\":8311:8320   */\n      dup4\n        /* \"#utility.yul\":8307:8324   */\n      add\n        /* \"#utility.yul\":8300:8347   */\n      mstore\n        /* \"#utility.yul\":8364:8495   */\n      tag_255\n        /* \"#utility.yul\":8490:8494   */\n      dup2\n        /* \"#utility.yul\":8364:8495   */\n      tag_213\n      jump\t// in\n    tag_255:\n        /* \"#utility.yul\":8356:8495   */\n      swap1\n      pop\n        /* \"#utility.yul\":8254:8502   */\n      swap2\n      swap1\n      pop\n      jump\t// out\n        /* \"#utility.yul\":8508:8927   */\n    tag_78:\n        /* \"#utility.yul\":8674:8678   */\n      0x00\n        /* \"#utility.yul\":8712:8714   */\n      0x20\n        /* \"#utility.yul\":8701:8710   */\n      dup3\n        /* \"#utility.yul\":8697:8715   */\n      add\n        /* \"#utility.yul\":8689:8715   */\n      swap1\n      pop\n        /* \"#utility.yul\":8761:8770   */\n      dup2\n        /* \"#utility.yul\":8755:8759   */\n      dup2\n        /* \"#utility.yul\":8751:8771   */\n      sub\n        /* \"#utility.yul\":8747:8748   */\n      0x00\n        /* \"#utility.yul\":8736:8745   */\n      dup4\n        /* \"#utility.yul\":8732:8749   */\n      add\n        /* \"#utility.yul\":8725:8772   */\n      mstore\n        /* \"#utility.yul\":8789:8920   */\n      tag_257\n        /* \"#utility.yul\":8915:8919   */\n      dup2\n        /* \"#utility.yul\":8789:8920   */\n      tag_218\n      jump\t// in\n    tag_257:\n        /* \"#utility.yul\":8781:8920   */\n      swap1\n      pop\n        /* \"#utility.yul\":8679:8927   */\n      swap2\n      swap1\n      pop\n      jump\t// out\n        /* \"#utility.yul\":8933:9352   */\n    tag_128:\n        /* \"#utility.yul\":9099:9103   */\n      0x00\n        /* \"#utility.yul\":9137:9139   */\n      0x20\n        /* \"#utility.yul\":9126:9135   */\n      dup3\n        /* \"#utility.yul\":9122:9140   */\n      add\n        /* \"#utility.yul\":9114:9140   */\n      swap1\n      pop\n        /* \"#utility.yul\":9186:9195   */\n      dup2\n        /* \"#utility.yul\":9180:9184   */\n      dup2\n        /* \"#utility.yul\":9176:9196   */\n      sub\n        /* \"#utility.yul\":9172:9173   */\n      0x00\n        /* \"#utility.yul\":9161:9170   */\n      dup4\n        /* \"#utility.yul\":9157:9174   */\n      add\n        /* \"#utility.yul\":9150:9197   */\n      mstore\n        /* \"#utility.yul\":9214:9345   */\n      tag_259\n        /* \"#utility.yul\":9340:9344   */\n      dup2\n        /* \"#utility.yul\":9214:9345   */\n      tag_223\n      jump\t// in\n    tag_259:\n        /* \"#utility.yul\":9206:9345   */\n      swap1\n      pop\n        /* \"#utility.yul\":9104:9352   */\n      swap2\n      swap1\n      pop\n      jump\t// out\n        /* \"#utility.yul\":9358:9777   */\n    tag_85:\n        /* \"#utility.yul\":9524:9528   */\n      0x00\n        /* \"#utility.yul\":9562:9564   */\n      0x20\n        /* \"#utility.yul\":9551:9560   */\n      dup3\n        /* \"#utility.yul\":9547:9565   */\n      add\n        /* \"#utility.yul\":9539:9565   */\n      swap1\n      pop\n        /* \"#utility.yul\":9611:9620   */\n      dup2\n        /* \"#utility.yul\":9605:9609   */\n      dup2\n        /* \"#utility.yul\":9601:9621   */\n      sub\n        /* \"#utility.yul\":9597:9598   */\n      0x00\n        /* \"#utility.yul\":9586:9595   */\n      dup4\n        /* \"#utility.yul\":9582:9599   */\n      add\n        /* \"#utility.yul\":9575:9622   */\n      mstore\n        /* \"#utility.yul\":9639:9770   */\n      tag_261\n        /* \"#utility.yul\":9765:9769   */\n      dup2\n        /* \"#utility.yul\":9639:9770   */\n      tag_228\n      jump\t// in\n    tag_261:\n        /* \"#utility.yul\":9631:9770   */\n      swap1\n      pop\n        /* \"#utility.yul\":9529:9777   */\n      swap2\n      swap1\n      pop\n      jump\t// out\n        /* \"#utility.yul\":9783:10202   */\n    tag_71:\n        /* \"#utility.yul\":9949:9953   */\n      0x00\n        /* \"#utility.yul\":9987:9989   */\n      0x20\n        /* \"#utility.yul\":9976:9985   */\n      dup3\n        /* \"#utility.yul\":9972:9990   */\n      add\n        /* \"#utility.yul\":9964:9990   */\n      swap1\n      pop\n        /* \"#utility.yul\":10036:10045   */\n      dup2\n        /* \"#utility.yul\":10030:10034   */\n      dup2\n        /* \"#utility.yul\":10026:10046   */\n      sub\n        /* \"#utility.yul\":10022:10023   */\n      0x00\n        /* \"#utility.yul\":10011:10020   */\n      dup4\n        /* \"#utility.yul\":10007:10024   */\n      add\n        /* \"#utility.yul\":10000:10047   */\n      mstore\n        /* \"#utility.yul\":10064:10195   */\n      tag_263\n        /* \"#utility.yul\":10190:10194   */\n      dup2\n        /* \"#utility.yul\":10064:10195   */\n      tag_233\n      jump\t// in\n    tag_263:\n        /* \"#utility.yul\":10056:10195   */\n      swap1\n      pop\n        /* \"#utility.yul\":9954:10202   */\n      swap2\n      swap1\n      pop\n      jump\t// out\n        /* \"#utility.yul\":10208:10430   */\n    tag_53:\n        /* \"#utility.yul\":10301:10305   */\n      0x00\n        /* \"#utility.yul\":10339:10341   */\n      0x20\n        /* \"#utility.yul\":10328:10337   */\n      dup3\n        /* \"#utility.yul\":10324:10342   */\n      add\n        /* \"#utility.yul\":10316:10342   */\n      swap1\n      pop\n        /* \"#utility.yul\":10352:10423   */\n      tag_265\n        /* \"#utility.yul\":10420:10421   */\n      0x00\n        /* \"#utility.yul\":10409:10418   */\n      dup4\n        /* \"#utility.yul\":10405:10422   */\n      add\n        /* \"#utility.yul\":10396:10402   */\n      dup5\n        /* \"#utility.yul\":10352:10423   */\n      tag_238\n      jump\t// in\n    tag_265:\n        /* \"#utility.yul\":10306:10430   */\n      swap3\n      swap2\n      pop\n      pop\n      jump\t// out\n        /* \"#utility.yul\":10436:10859   */\n    tag_119:\n        /* \"#utility.yul\":10577:10581   */\n      0x00\n        /* \"#utility.yul\":10615:10617   */\n      0x40\n        /* \"#utility.yul\":10604:10613   */\n      dup3\n        /* \"#utility.yul\":10600:10618   */\n      add\n        /* \"#utility.yul\":10592:10618   */\n      swap1\n      pop\n        /* \"#utility.yul\":10628:10699   */\n      tag_267\n        /* \"#utility.yul\":10696:10697   */\n      0x00\n        /* \"#utility.yul\":10685:10694   */\n      dup4\n        /* \"#utility.yul\":10681:10698   */\n      add\n        /* \"#utility.yul\":10672:10678   */\n      dup6\n        /* \"#utility.yul\":10628:10699   */\n      tag_238\n      jump\t// in\n    tag_267:\n        /* \"#utility.yul\":10746:10755   */\n      dup2\n        /* \"#utility.yul\":10740:10744   */\n      dup2\n        /* \"#utility.yul\":10736:10756   */\n      sub\n        /* \"#utility.yul\":10731:10733   */\n      0x20\n        /* \"#utility.yul\":10720:10729   */\n      dup4\n        /* \"#utility.yul\":10716:10734   */\n      add\n        /* \"#utility.yul\":10709:10757   */\n      mstore\n        /* \"#utility.yul\":10774:10852   */\n      tag_268\n        /* \"#utility.yul\":10847:10851   */\n      dup2\n        /* \"#utility.yul\":10838:10844   */\n      dup5\n        /* \"#utility.yul\":10774:10852   */\n      tag_183\n      jump\t// in\n    tag_268:\n        /* \"#utility.yul\":10766:10852   */\n      swap1\n      pop\n        /* \"#utility.yul\":10582:10859   */\n      swap4\n      swap3\n      pop\n      pop\n      pop\n      jump\t// out\n        /* \"#utility.yul\":10865:11398   */\n    tag_35:\n        /* \"#utility.yul\":11034:11038   */\n      0x00\n        /* \"#utility.yul\":11072:11074   */\n      0x60\n        /* \"#utility.yul\":11061:11070   */\n      dup3\n        /* \"#utility.yul\":11057:11075   */\n      add\n        /* \"#utility.yul\":11049:11075   */\n      swap1\n      pop\n        /* \"#utility.yul\":11085:11156   */\n      tag_270\n        /* \"#utility.yul\":11153:11154   */\n      0x00\n        /* \"#utility.yul\":11142:11151   */\n      dup4\n        /* \"#utility.yul\":11138:11155   */\n      add\n        /* \"#utility.yul\":11129:11135   */\n      dup7\n        /* \"#utility.yul\":11085:11156   */\n      tag_238\n      jump\t// in\n    tag_270:\n        /* \"#utility.yul\":11203:11212   */\n      dup2\n        /* \"#utility.yul\":11197:11201   */\n      dup2\n        /* \"#utility.yul\":11193:11213   */\n      sub\n        /* \"#utility.yul\":11188:11190   */\n      0x20\n        /* \"#utility.yul\":11177:11186   */\n      dup4\n        /* \"#utility.yul\":11173:11191   */\n      add\n        /* \"#utility.yul\":11166:11214   */\n      mstore\n        /* \"#utility.yul\":11231:11309   */\n      tag_271\n        /* \"#utility.yul\":11304:11308   */\n      dup2\n        /* \"#utility.yul\":11295:11301   */\n      dup6\n        /* \"#utility.yul\":11231:11309   */\n      tag_183\n      jump\t// in\n    tag_271:\n        /* \"#utility.yul\":11223:11309   */\n      swap1\n      pop\n        /* \"#utility.yul\":11319:11391   */\n      tag_272\n        /* \"#utility.yul\":11387:11389   */\n      0x40\n        /* \"#utility.yul\":11376:11385   */\n      dup4\n        /* \"#utility.yul\":11372:11390   */\n      add\n        /* \"#utility.yul\":11363:11369   */\n      dup5\n        /* \"#utility.yul\":11319:11391   */\n      tag_238\n      jump\t// in\n    tag_272:\n        /* \"#utility.yul\":11039:11398   */\n      swap5\n      swap4\n      pop\n      pop\n      pop\n      pop\n      jump\t// out\n        /* \"#utility.yul\":11404:11533   */\n    tag_149:\n        /* \"#utility.yul\":11438:11444   */\n      0x00\n        /* \"#utility.yul\":11465:11485   */\n      tag_274\n      tag_275\n      jump\t// in\n    tag_274:\n        /* \"#utility.yul\":11455:11485   */\n      swap1\n      pop\n        /* \"#utility.yul\":11494:11527   */\n      tag_276\n        /* \"#utility.yul\":11522:11526   */\n      dup3\n        /* \"#utility.yul\":11514:11520   */\n      dup3\n        /* \"#utility.yul\":11494:11527   */\n      tag_277\n      jump\t// in\n    tag_276:\n        /* \"#utility.yul\":11445:11533   */\n      swap2\n      swap1\n      pop\n      jump\t// out\n        /* \"#utility.yul\":11539:11614   */\n    tag_275:\n        /* \"#utility.yul\":11572:11578   */\n      0x00\n        /* \"#utility.yul\":11605:11607   */\n      0x40\n        /* \"#utility.yul\":11599:11608   */\n      mload\n        /* \"#utility.yul\":11589:11608   */\n      swap1\n      pop\n        /* \"#utility.yul\":11579:11614   */\n      swap1\n      jump\t// out\n        /* \"#utility.yul\":11620:11928   */\n    tag_148:\n        /* \"#utility.yul\":11682:11686   */\n      0x00\n        /* \"#utility.yul\":11772:11790   */\n      0xffffffffffffffff\n        /* \"#utility.yul\":11764:11770   */\n      dup3\n        /* \"#utility.yul\":11761:11791   */\n      gt\n        /* \"#utility.yul\":11758:11760   */\n      iszero\n      tag_280\n      jumpi\n        /* \"#utility.yul\":11794:11812   */\n      tag_281\n      tag_282\n      jump\t// in\n    tag_281:\n        /* \"#utility.yul\":11758:11760   */\n    tag_280:\n        /* \"#utility.yul\":11832:11861   */\n      tag_283\n        /* \"#utility.yul\":11854:11860   */\n      dup3\n        /* \"#utility.yul\":11832:11861   */\n      tag_192\n      jump\t// in\n    tag_283:\n        /* \"#utility.yul\":11824:11861   */\n      swap1\n      pop\n        /* \"#utility.yul\":11916:11920   */\n      0x20\n        /* \"#utility.yul\":11910:11914   */\n      dup2\n        /* \"#utility.yul\":11906:11921   */\n      add\n        /* \"#utility.yul\":11898:11921   */\n      swap1\n      pop\n        /* \"#utility.yul\":11687:11928   */\n      swap2\n      swap1\n      pop\n      jump\t// out\n        /* \"#utility.yul\":11934:12033   */\n    tag_186:\n        /* \"#utility.yul\":11986:11992   */\n      0x00\n        /* \"#utility.yul\":12020:12025   */\n      dup2\n        /* \"#utility.yul\":12014:12026   */\n      mload\n        /* \"#utility.yul\":12004:12026   */\n      swap1\n      pop\n        /* \"#utility.yul\":11993:12033   */\n      swap2\n      swap1\n      pop\n      jump\t// out\n        /* \"#utility.yul\":12039:12208   */\n    tag_188:\n        /* \"#utility.yul\":12123:12134   */\n      0x00\n        /* \"#utility.yul\":12157:12163   */\n      dup3\n        /* \"#utility.yul\":12152:12155   */\n      dup3\n        /* \"#utility.yul\":12145:12164   */\n      mstore\n        /* \"#utility.yul\":12197:12201   */\n      0x20\n        /* \"#utility.yul\":12192:12195   */\n      dup3\n        /* \"#utility.yul\":12188:12202   */\n      add\n        /* \"#utility.yul\":12173:12202   */\n      swap1\n      pop\n        /* \"#utility.yul\":12135:12208   */\n      swap3\n      swap2\n      pop\n      pop\n      jump\t// out\n        /* \"#utility.yul\":12214:12310   */\n    tag_178:\n        /* \"#utility.yul\":12251:12258   */\n      0x00\n        /* \"#utility.yul\":12280:12304   */\n      tag_287\n        /* \"#utility.yul\":12298:12303   */\n      dup3\n        /* \"#utility.yul\":12280:12304   */\n      tag_288\n      jump\t// in\n    tag_287:\n        /* \"#utility.yul\":12269:12304   */\n      swap1\n      pop\n        /* \"#utility.yul\":12259:12310   */\n      swap2\n      swap1\n      pop\n      jump\t// out\n        /* \"#utility.yul\":12316:12406   */\n    tag_182:\n        /* \"#utility.yul\":12350:12357   */\n      0x00\n        /* \"#utility.yul\":12393:12398   */\n      dup2\n        /* \"#utility.yul\":12386:12399   */\n      iszero\n        /* \"#utility.yul\":12379:12400   */\n      iszero\n        /* \"#utility.yul\":12368:12400   */\n      swap1\n      pop\n        /* \"#utility.yul\":12358:12406   */\n      swap2\n      swap1\n      pop\n      jump\t// out\n        /* \"#utility.yul\":12412:12538   */\n    tag_288:\n        /* \"#utility.yul\":12449:12456   */\n      0x00\n        /* \"#utility.yul\":12489:12531   */\n      0xffffffffffffffffffffffffffffffffffffffff\n        /* \"#utility.yul\":12482:12487   */\n      dup3\n        /* \"#utility.yul\":12478:12532   */\n      and\n        /* \"#utility.yul\":12467:12532   */\n      swap1\n      pop\n        /* \"#utility.yul\":12457:12538   */\n      swap2\n      swap1\n      pop\n      jump\t// out\n        /* \"#utility.yul\":12544:12621   */\n    tag_241:\n        /* \"#utility.yul\":12581:12588   */\n      0x00\n        /* \"#utility.yul\":12610:12615   */\n      dup2\n        /* \"#utility.yul\":12599:12615   */\n      swap1\n      pop\n        /* \"#utility.yul\":12589:12621   */\n      swap2\n      swap1\n      pop\n      jump\t// out\n        /* \"#utility.yul\":12627:12781   */\n    tag_152:\n        /* \"#utility.yul\":12711:12717   */\n      dup3\n        /* \"#utility.yul\":12706:12709   */\n      dup2\n        /* \"#utility.yul\":12701:12704   */\n      dup4\n        /* \"#utility.yul\":12688:12718   */\n      calldatacopy\n        /* \"#utility.yul\":12773:12774   */\n      0x00\n        /* \"#utility.yul\":12764:12770   */\n      dup4\n        /* \"#utility.yul\":12759:12762   */\n      dup4\n        /* \"#utility.yul\":12755:12771   */\n      add\n        /* \"#utility.yul\":12748:12775   */\n      mstore\n        /* \"#utility.yul\":12678:12781   */\n      pop\n      pop\n      pop\n      jump\t// out\n        /* \"#utility.yul\":12787:13094   */\n    tag_190:\n        /* \"#utility.yul\":12855:12856   */\n      0x00\n        /* \"#utility.yul\":12865:12978   */\n    tag_294:\n        /* \"#utility.yul\":12879:12885   */\n      dup4\n        /* \"#utility.yul\":12876:12877   */\n      dup2\n        /* \"#utility.yul\":12873:12886   */\n      lt\n        /* \"#utility.yul\":12865:12978   */\n      iszero\n      tag_296\n      jumpi\n        /* \"#utility.yul\":12964:12965   */\n      dup1\n        /* \"#utility.yul\":12959:12962   */\n      dup3\n        /* \"#utility.yul\":12955:12966   */\n      add\n        /* \"#utility.yul\":12949:12967   */\n      mload\n        /* \"#utility.yul\":12945:12946   */\n      dup2\n        /* \"#utility.yul\":12940:12943   */\n      dup5\n        /* \"#utility.yul\":12936:12947   */\n      add\n        /* \"#utility.yul\":12929:12968   */\n      mstore\n        /* \"#utility.yul\":12901:12903   */\n      0x20\n        /* \"#utility.yul\":12898:12899   */\n      dup2\n        /* \"#utility.yul\":12894:12904   */\n      add\n        /* \"#utility.yul\":12889:12904   */\n      swap1\n      pop\n        /* \"#utility.yul\":12865:12978   */\n      jump(tag_294)\n    tag_296:\n        /* \"#utility.yul\":12996:13002   */\n      dup4\n        /* \"#utility.yul\":12993:12994   */\n      dup2\n        /* \"#utility.yul\":12990:13003   */\n      gt\n        /* \"#utility.yul\":12987:12989   */\n      iszero\n      tag_297\n      jumpi\n        /* \"#utility.yul\":13076:13077   */\n      0x00\n        /* \"#utility.yul\":13067:13073   */\n      dup5\n        /* \"#utility.yul\":13062:13065   */\n      dup5\n        /* \"#utility.yul\":13058:13074   */\n      add\n        /* \"#utility.yul\":13051:13078   */\n      mstore\n        /* \"#utility.yul\":12987:12989   */\n    tag_297:\n        /* \"#utility.yul\":12836:13094   */\n      pop\n      pop\n      pop\n      pop\n      jump\t// out\n        /* \"#utility.yul\":13100:13420   */\n    tag_96:\n        /* \"#utility.yul\":13144:13150   */\n      0x00\n        /* \"#utility.yul\":13181:13182   */\n      0x02\n        /* \"#utility.yul\":13175:13179   */\n      dup3\n        /* \"#utility.yul\":13171:13183   */\n      div\n        /* \"#utility.yul\":13161:13183   */\n      swap1\n      pop\n        /* \"#utility.yul\":13228:13229   */\n      0x01\n        /* \"#utility.yul\":13222:13226   */\n      dup3\n        /* \"#utility.yul\":13218:13230   */\n      and\n        /* \"#utility.yul\":13249:13267   */\n      dup1\n        /* \"#utility.yul\":13239:13241   */\n      tag_299\n      jumpi\n        /* \"#utility.yul\":13305:13309   */\n      0x7f\n        /* \"#utility.yul\":13297:13303   */\n      dup3\n        /* \"#utility.yul\":13293:13310   */\n      and\n        /* \"#utility.yul\":13283:13310   */\n      swap2\n      pop\n        /* \"#utility.yul\":13239:13241   */\n    tag_299:\n        /* \"#utility.yul\":13367:13369   */\n      0x20\n        /* \"#utility.yul\":13359:13365   */\n      dup3\n        /* \"#utility.yul\":13356:13370   */\n      lt\n        /* \"#utility.yul\":13336:13354   */\n      dup2\n        /* \"#utility.yul\":13333:13371   */\n      eq\n        /* \"#utility.yul\":13330:13332   */\n      iszero\n      tag_300\n      jumpi\n        /* \"#utility.yul\":13386:13404   */\n      tag_301\n      tag_302\n      jump\t// in\n    tag_301:\n        /* \"#utility.yul\":13330:13332   */\n    tag_300:\n        /* \"#utility.yul\":13151:13420   */\n      pop\n      swap2\n      swap1\n      pop\n      jump\t// out\n        /* \"#utility.yul\":13426:13707   */\n    tag_277:\n        /* \"#utility.yul\":13509:13536   */\n      tag_304\n        /* \"#utility.yul\":13531:13535   */\n      dup3\n        /* \"#utility.yul\":13509:13536   */\n      tag_192\n      jump\t// in\n    tag_304:\n        /* \"#utility.yul\":13501:13507   */\n      dup2\n        /* \"#utility.yul\":13497:13537   */\n      add\n        /* \"#utility.yul\":13639:13645   */\n      dup2\n        /* \"#utility.yul\":13627:13637   */\n      dup2\n        /* \"#utility.yul\":13624:13646   */\n      lt\n        /* \"#utility.yul\":13603:13621   */\n      0xffffffffffffffff\n        /* \"#utility.yul\":13591:13601   */\n      dup3\n        /* \"#utility.yul\":13588:13622   */\n      gt\n        /* \"#utility.yul\":13585:13647   */\n      or\n        /* \"#utility.yul\":13582:13584   */\n      iszero\n      tag_305\n      jumpi\n        /* \"#utility.yul\":13650:13668   */\n      tag_306\n      tag_282\n      jump\t// in\n    tag_306:\n        /* \"#utility.yul\":13582:13584   */\n    tag_305:\n        /* \"#utility.yul\":13690:13700   */\n      dup1\n        /* \"#utility.yul\":13686:13688   */\n      0x40\n        /* \"#utility.yul\":13679:13701   */\n      mstore\n        /* \"#utility.yul\":13469:13707   */\n      pop\n      pop\n      pop\n      jump\t// out\n        /* \"#utility.yul\":13713:13946   */\n    tag_73:\n        /* \"#utility.yul\":13752:13755   */\n      0x00\n        /* \"#utility.yul\":13775:13799   */\n      tag_308\n        /* \"#utility.yul\":13793:13798   */\n      dup3\n        /* \"#utility.yul\":13775:13799   */\n      tag_241\n      jump\t// in\n    tag_308:\n        /* \"#utility.yul\":13766:13799   */\n      swap2\n      pop\n        /* \"#utility.yul\":13821:13887   */\n      0xffffffffffffffffffffffffffffffffffffffffffffffffffffffffffffffff\n        /* \"#utility.yul\":13814:13819   */\n      dup3\n        /* \"#utility.yul\":13811:13888   */\n      eq\n        /* \"#utility.yul\":13808:13810   */\n      iszero\n      tag_309\n      jumpi\n        /* \"#utility.yul\":13891:13909   */\n      tag_310\n      tag_311\n      jump\t// in\n    tag_310:\n        /* \"#utility.yul\":13808:13810   */\n    tag_309:\n        /* \"#utility.yul\":13938:13939   */\n      0x01\n        /* \"#utility.yul\":13931:13936   */\n      dup3\n        /* \"#utility.yul\":13927:13940   */\n      add\n        /* \"#utility.yul\":13920:13940   */\n      swap1\n      pop\n        /* \"#utility.yul\":13756:13946   */\n      swap2\n      swap1\n      pop\n      jump\t// out\n        /* \"#utility.yul\":13952:14132   */\n    tag_311:\n        /* \"#utility.yul\":14000:14077   */\n      0x4e487b7100000000000000000000000000000000000000000000000000000000\n        /* \"#utility.yul\":13997:13998   */\n      0x00\n        /* \"#utility.yul\":13990:14078   */\n      mstore\n        /* \"#utility.yul\":14097:14101   */\n      0x11\n        /* \"#utility.yul\":14094:14095   */\n      0x04\n        /* \"#utility.yul\":14087:14102   */\n      mstore\n        /* \"#utility.yul\":14121:14125   */\n      0x24\n        /* \"#utility.yul\":14118:14119   */\n      0x00\n        /* \"#utility.yul\":14111:14126   */\n      revert\n        /* \"#utility.yul\":14138:14318   */\n    tag_302:\n        /* \"#utility.yul\":14186:14263   */\n      0x4e487b7100000000000000000000000000000000000000000000000000000000\n        /* \"#utility.yul\":14183:14184   */\n      0x00\n        /* \"#utility.yul\":14176:14264   */\n      mstore\n        /* \"#utility.yul\":14283:14287   */\n      0x22\n        /* \"#utility.yul\":14280:14281   */\n      0x04\n        /* \"#utility.yul\":14273:14288   */\n      mstore\n        /* \"#utility.yul\":14307:14311   */\n      0x24\n        /* \"#utility.yul\":14304:14305   */\n      0x00\n        /* \"#utility.yul\":14297:14312   */\n      revert\n        /* \"#utility.yul\":14324:14504   */\n    tag_282:\n        /* \"#utility.yul\":14372:14449   */\n      0x4e487b7100000000000000000000000000000000000000000000000000000000\n        /* \"#utility.yul\":14369:14370   */\n      0x00\n        /* \"#utility.yul\":14362:14450   */\n      mstore\n        /* \"#utility.yul\":14469:14473   */\n      0x41\n        /* \"#utility.yul\":14466:14467   */\n      0x04\n        /* \"#utility.yul\":14459:14474   */\n      mstore\n        /* \"#utility.yul\":14493:14497   */\n      0x24\n        /* \"#utility.yul\":14490:14491   */\n      0x00\n        /* \"#utility.yul\":14483:14498   */\n      revert\n        /* \"#utility.yul\":14510:14612   */\n    tag_192:\n        /* \"#utility.yul\":14551:14557   */\n      0x00\n        /* \"#utility.yul\":14602:14604   */\n      0x1f\n        /* \"#utility.yul\":14598:14605   */\n      not\n        /* \"#utility.yul\":14593:14595   */\n      0x1f\n        /* \"#utility.yul\":14586:14591   */\n      dup4\n        /* \"#utility.yul\":14582:14596   */\n      add\n        /* \"#utility.yul\":14578:14606   */\n      and\n        /* \"#utility.yul\":14568:14606   */\n      swap1\n      pop\n        /* \"#utility.yul\":14558:14612   */\n      swap2\n      swap1\n      pop\n      jump\t// out\n        /* \"#utility.yul\":14618:14855   */\n    tag_197:\n        /* \"#utility.yul\":14758:14792   */\n      0x43616e6e6f742072656d6f76652063616e646964617465732061667465722076\n        /* \"#utility.yul\":14754:14755   */\n      0x00\n        /* \"#utility.yul\":14746:14752   */\n      dup3\n        /* \"#utility.yul\":14742:14756   */\n      add\n        /* \"#utility.yul\":14735:14793   */\n      mstore\n        /* \"#utility.yul\":14827:14847   */\n      0x6f74696e672068617320737461727465642e0000000000000000000000000000\n        /* \"#utility.yul\":14822:14824   */\n      0x20\n        /* \"#utility.yul\":14814:14820   */\n      dup3\n        /* \"#utility.yul\":14810:14825   */\n      add\n        /* \"#utility.yul\":14803:14848   */\n      mstore\n        /* \"#utility.yul\":14724:14855   */\n      pop\n      jump\t// out\n        /* \"#utility.yul\":14861:15034   */\n    tag_202:\n        /* \"#utility.yul\":15001:15026   */\n      0x596f75206861766520616c726561647920766f7465642e000000000000000000\n        /* \"#utility.yul\":14997:14998   */\n      0x00\n        /* \"#utility.yul\":14989:14995   */\n      dup3\n        /* \"#utility.yul\":14985:14999   */\n      add\n        /* \"#utility.yul\":14978:15027   */\n      mstore\n        /* \"#utility.yul\":14967:15034   */\n      pop\n      jump\t// out\n        /* \"#utility.yul\":15040:15213   */\n    tag_207:\n        /* \"#utility.yul\":15180:15205   */\n      0x566f74696e6720616c726561647920737461727465642e000000000000000000\n        /* \"#utility.yul\":15176:15177   */\n      0x00\n        /* \"#utility.yul\":15168:15174   */\n      dup3\n        /* \"#utility.yul\":15164:15178   */\n      add\n        /* \"#utility.yul\":15157:15206   */\n      mstore\n        /* \"#utility.yul\":15146:15213   */\n      pop\n      jump\t// out\n        /* \"#utility.yul\":15219:15390   */\n    tag_212:\n        /* \"#utility.yul\":15359:15382   */\n      0x566f74696e67206973206e6f74206163746976652e0000000000000000000000\n        /* \"#utility.yul\":15355:15356   */\n      0x00\n        /* \"#utility.yul\":15347:15353   */\n      dup3\n        /* \"#utility.yul\":15343:15357   */\n      add\n        /* \"#utility.yul\":15336:15383   */\n      mstore\n        /* \"#utility.yul\":15325:15390   */\n      pop\n      jump\t// out\n        /* \"#utility.yul\":15396:15630   */\n    tag_217:\n        /* \"#utility.yul\":15536:15570   */\n      0x43616e6e6f74206164642063616e6469646174657320616674657220766f7469\n        /* \"#utility.yul\":15532:15533   */\n      0x00\n        /* \"#utility.yul\":15524:15530   */\n      dup3\n        /* \"#utility.yul\":15520:15534   */\n      add\n        /* \"#utility.yul\":15513:15571   */\n      mstore\n        /* \"#utility.yul\":15605:15622   */\n      0x6e672068617320737461727465642e0000000000000000000000000000000000\n        /* \"#utility.yul\":15600:15602   */\n      0x20\n        /* \"#utility.yul\":15592:15598   */\n      dup3\n        /* \"#utility.yul\":15588:15603   */\n      add\n        /* \"#utility.yul\":15581:15623   */\n      mstore\n        /* \"#utility.yul\":15502:15630   */\n      pop\n      jump\t// out\n        /* \"#utility.yul\":15636:15857   */\n    tag_222:\n        /* \"#utility.yul\":15776:15810   */\n      0x4f6e6c792061646d696e2063616e20706572666f726d20746869732061637469\n        /* \"#utility.yul\":15772:15773   */\n      0x00\n        /* \"#utility.yul\":15764:15770   */\n      dup3\n        /* \"#utility.yul\":15760:15774   */\n      add\n        /* \"#utility.yul\":15753:15811   */\n      mstore\n        /* \"#utility.yul\":15845:15849   */\n      0x6f6e000000000000000000000000000000000000000000000000000000000000\n        /* \"#utility.yul\":15840:15842   */\n      0x20\n        /* \"#utility.yul\":15832:15838   */\n      dup3\n        /* \"#utility.yul\":15828:15843   */\n      add\n        /* \"#utility.yul\":15821:15850   */\n      mstore\n        /* \"#utility.yul\":15742:15857   */\n      pop\n      jump\t// out\n        /* \"#utility.yul\":15863:16031   */\n    tag_227:\n        /* \"#utility.yul\":16003:16023   */\n      0x566f74696e67206e6f74206163746976652e0000000000000000000000000000\n        /* \"#utility.yul\":15999:16000   */\n      0x00\n        /* \"#utility.yul\":15991:15997   */\n      dup3\n        /* \"#utility.yul\":15987:16001   */\n      add\n        /* \"#utility.yul\":15980:16024   */\n      mstore\n        /* \"#utility.yul\":15969:16031   */\n      pop\n      jump\t// out\n        /* \"#utility.yul\":16037:16212   */\n    tag_232:\n        /* \"#utility.yul\":16177:16204   */\n      0x43616e64696461746520646f6573206e6f742065786973742e00000000000000\n        /* \"#utility.yul\":16173:16174   */\n      0x00\n        /* \"#utility.yul\":16165:16171   */\n      dup3\n        /* \"#utility.yul\":16161:16175   */\n      add\n        /* \"#utility.yul\":16154:16205   */\n      mstore\n        /* \"#utility.yul\":16143:16212   */\n      pop\n      jump\t// out\n        /* \"#utility.yul\":16218:16389   */\n    tag_237:\n        /* \"#utility.yul\":16358:16381   */\n      0x496e76616c69642063616e6469646174652049442e0000000000000000000000\n        /* \"#utility.yul\":16354:16355   */\n      0x00\n        /* \"#utility.yul\":16346:16352   */\n      dup3\n        /* \"#utility.yul\":16342:16356   */\n      add\n        /* \"#utility.yul\":16335:16382   */\n      mstore\n        /* \"#utility.yul\":16324:16389   */\n      pop\n      jump\t// out\n        /* \"#utility.yul\":16395:16517   */\n    tag_156:\n        /* \"#utility.yul\":16468:16492   */\n      tag_326\n        /* \"#utility.yul\":16486:16491   */\n      dup2\n        /* \"#utility.yul\":16468:16492   */\n      tag_178\n      jump\t// in\n    tag_326:\n        /* \"#utility.yul\":16461:16466   */\n      dup2\n        /* \"#utility.yul\":16458:16493   */\n      eq\n        /* \"#utility.yul\":16448:16450   */\n      tag_327\n      jumpi\n        /* \"#utility.yul\":16507:16508   */\n      0x00\n        /* \"#utility.yul\":16504:16505   */\n      dup1\n        /* \"#utility.yul\":16497:16509   */\n      revert\n        /* \"#utility.yul\":16448:16450   */\n    tag_327:\n        /* \"#utility.yul\":16438:16517   */\n      pop\n      jump\t// out\n        /* \"#utility.yul\":16523:16645   */\n    tag_164:\n        /* \"#utility.yul\":16596:16620   */\n      tag_329\n        /* \"#utility.yul\":16614:16619   */\n      dup2\n        /* \"#utility.yul\":16596:16620   */\n      tag_241\n      jump\t// in\n    tag_329:\n        /* \"#utility.yul\":16589:16594   */\n      dup2\n        /* \"#utility.yul\":16586:16621   */\n      eq\n        /* \"#utility.yul\":16576:16578   */\n      tag_330\n      jumpi\n        /* \"#utility.yul\":16635:16636   */\n      0x00\n        /* \"#utility.yul\":16632:16633   */\n      dup1\n        /* \"#utility.yul\":16625:16637   */\n      revert\n        /* \"#utility.yul\":16576:16578   */\n    tag_330:\n        /* \"#utility.yul\":16566:16645   */\n      pop\n      jump\t// out\n\n    auxdata: 0xa26469706673582212203c58379f6556be6eb6cca23632db62c4d9ee2788a6ef6a541ad0890afe79e14964736f6c63430008040033\n}\n",
				"bytecode": {
					"linkReferences": {},
					"object": "608060405234801561001057600080fd5b50336000806101000a81548173ffffffffffffffffffffffffffffffffffffffff021916908373ffffffffffffffffffffffffffffffffffffffff160217905550611618806100606000396000f3fe608060405234801561001057600080fd5b50600436106100b45760003560e01c8063462e91ec11610071578063462e91ec1461018f57806383d948b7146101ab5780639d5a0529146101c9578063bc08df78146101e7578063c3403ddf14610205578063f851a4401461020f576100b4565b80630121b93f146100b957806309e9d7e2146100d557806309eef43e146100f15780631ec6b60a146101215780633477ee2e1461012b57806335b8e8201461015d575b600080fd5b6100d360048036038101906100ce9190610de2565b61022d565b005b6100ef60048036038101906100ea9190610de2565b61043b565b005b61010b60048036038101906101069190610d78565b610596565b6040516101189190610fc7565b60405180910390f35b6101296105b6565b005b61014560048036038101906101409190610de2565b6106f8565b6040516101549392919061114d565b60405180910390f35b61017760048036038101906101729190610de2565b6107aa565b6040516101869392919061114d565b60405180910390f35b6101a960048036038101906101a49190610da1565b6108d9565b005b6101b3610a74565b6040516101c09190610fc7565b60405180910390f35b6101d1610a87565b6040516101de9190610fc7565b60405180910390f35b6101ef610a9a565b6040516101fc9190611102565b60405180910390f35b61020d610aa0565b005b610217610bdf565b6040516102249190610fac565b60405180910390f35b600460009054906101000a900460ff1680156102565750600460019054906101000a900460ff16155b610295576040517f08c379a000000000000000000000000000000000000000000000000000000000815260040161028c90611042565b60405180910390fd5b600360003373ffffffffffffffffffffffffffffffffffffffff1673ffffffffffffffffffffffffffffffffffffffff16815260200190815260200160002060009054906101000a900460ff1615610322576040517f08c379a000000000000000000000000000000000000000000000000000000000815260040161031990611002565b60405180910390fd5b6001548110610366576040517f08c379a000000000000000000000000000000000000000000000000000000000815260040161035d906110e2565b60405180910390fd5b60026000828152602001908152602001600020600201600081548092919061038d906112ea565b91905055506001600360003373ffffffffffffffffffffffffffffffffffffffff1673ffffffffffffffffffffffffffffffffffffffff16815260200190815260200160002060006101000a81548160ff0219169083151502179055503373ffffffffffffffffffffffffffffffffffffffff167f4d99b957a2bc29a30ebd96a7be8e68fe50a3c701db28a91436490b7d53870ca4826040516104309190611102565b60405180910390a250565b3373ffffffffffffffffffffffffffffffffffffffff1660008054906101000a900473ffffffffffffffffffffffffffffffffffffffff1673ffffffffffffffffffffffffffffffffffffffff16146104c9576040517f08c379a00000000000000000000000000000000000000000000000000000000081526004016104c090611082565b60405180910390fd5b600460009054906101000a900460ff1615610519576040517f08c379a000000000000000000000000000000000000000000000000000000000815260040161051090610fe2565b60405180910390fd5b600154811061055d576040517f08c379a0000000000000000000000000000000000000000000000000000000008152600401610554906110c2565b60405180910390fd5b600260008281526020019081526020016000206000808201600090556001820160006105899190610c03565b6002820160009055505050565b60036020528060005260406000206000915054906101000a900460ff1681565b3373ffffffffffffffffffffffffffffffffffffffff1660008054906101000a900473ffffffffffffffffffffffffffffffffffffffff1673ffffffffffffffffffffffffffffffffffffffff1614610644576040517f08c379a000000000000000000000000000000000000000000000000000000000815260040161063b90611082565b60405180910390fd5b600460009054906101000a900460ff1615610694576040517f08c379a000000000000000000000000000000000000000000000000000000000815260040161068b90611022565b60405180910390fd5b6001600460006101000a81548160ff0219169083151502179055506000600460016101000a81548160ff0219169083151502179055507f877e2548498f42b7975a186b94ef1d32c86d420b7b806dd2be2bea293b89590460405160405180910390a1565b600260205280600052604060002060009150905080600001549080600101805461072190611287565b80601f016020809104026020016040519081016040528092919081815260200182805461074d90611287565b801561079a5780601f1061076f5761010080835404028352916020019161079a565b820191906000526020600020905b81548152906001019060200180831161077d57829003601f168201915b5050505050908060020154905083565b60006060600060015484106107f4576040517f08c379a00000000000000000000000000000000000000000000000000000000081526004016107eb906110c2565b60405180910390fd5b6000600260008681526020019081526020016000206040518060600160405290816000820154815260200160018201805461082e90611287565b80601f016020809104026020016040519081016040528092919081815260200182805461085a90611287565b80156108a75780601f1061087c576101008083540402835291602001916108a7565b820191906000526020600020905b81548152906001019060200180831161088a57829003601f168201915b505050505081526020016002820154815250509050806000015181602001518260400151935093509350509193909250565b3373ffffffffffffffffffffffffffffffffffffffff1660008054906101000a900473ffffffffffffffffffffffffffffffffffffffff1673ffffffffffffffffffffffffffffffffffffffff1614610967576040517f08c379a000000000000000000000000000000000000000000000000000000000815260040161095e90611082565b60405180910390fd5b600460009054906101000a900460ff16156109b7576040517f08c379a00000000000000000000000000000000000000000000000000000000081526004016109ae90611062565b60405180910390fd5b604051806060016040528060015481526020018281526020016000815250600260006001548152602001908152602001600020600082015181600001556020820151816001019080519060200190610a10929190610c43565b50604082015181600201559050507fe83b2a43e7e82d975c8a0a6d2f045153c869e111136a34d1889ab7b598e396a360015482604051610a5192919061111d565b60405180910390a160016000815480929190610a6c906112ea565b919050555050565b600460009054906101000a900460ff1681565b600460019054906101000a900460ff1681565b60015481565b3373ffffffffffffffffffffffffffffffffffffffff1660008054906101000a900473ffffffffffffffffffffffffffffffffffffffff1673ffffffffffffffffffffffffffffffffffffffff1614610b2e576040517f08c379a0000000000000000000000000000000000000000000000000000000008152600401610b2590611082565b60405180910390fd5b600460009054906101000a900460ff168015610b575750600460019054906101000a900460ff16155b610b96576040517f08c379a0000000000000000000000000000000000000000000000000000000008152600401610b8d906110a2565b60405180910390fd5b6001600460016101000a81548160ff0219169083151502179055507f7a19ed057db79e3c2fa0b97a54b43bef4fce74b31bb6c01af514b9a18a7f70ab60405160405180910390a1565b60008054906101000a900473ffffffffffffffffffffffffffffffffffffffff1681565b508054610c0f90611287565b6000825580601f10610c215750610c40565b601f016020900490600052602060002090810190610c3f9190610cc9565b5b50565b828054610c4f90611287565b90600052602060002090601f016020900481019282610c715760008555610cb8565b82601f10610c8a57805160ff1916838001178555610cb8565b82800160010185558215610cb8579182015b82811115610cb7578251825591602001919060010190610c9c565b5b509050610cc59190610cc9565b5090565b5b80821115610ce2576000816000905550600101610cca565b5090565b6000610cf9610cf4846111b0565b61118b565b905082815260208101848484011115610d1157600080fd5b610d1c848285611245565b509392505050565b600081359050610d33816115b4565b92915050565b600082601f830112610d4a57600080fd5b8135610d5a848260208601610ce6565b91505092915050565b600081359050610d72816115cb565b92915050565b600060208284031215610d8a57600080fd5b6000610d9884828501610d24565b91505092915050565b600060208284031215610db357600080fd5b600082013567ffffffffffffffff811115610dcd57600080fd5b610dd984828501610d39565b91505092915050565b600060208284031215610df457600080fd5b6000610e0284828501610d63565b91505092915050565b610e14816111fd565b82525050565b610e238161120f565b82525050565b6000610e34826111e1565b610e3e81856111ec565b9350610e4e818560208601611254565b610e57816113c0565b840191505092915050565b6000610e6f6032836111ec565b9150610e7a826113d1565b604082019050919050565b6000610e926017836111ec565b9150610e9d82611420565b602082019050919050565b6000610eb56017836111ec565b9150610ec082611449565b602082019050919050565b6000610ed86015836111ec565b9150610ee382611472565b602082019050919050565b6000610efb602f836111ec565b9150610f068261149b565b604082019050919050565b6000610f1e6022836111ec565b9150610f29826114ea565b604082019050919050565b6000610f416012836111ec565b9150610f4c82611539565b602082019050919050565b6000610f646019836111ec565b9150610f6f82611562565b602082019050919050565b6000610f876015836111ec565b9150610f928261158b565b602082019050919050565b610fa68161123b565b82525050565b6000602082019050610fc16000830184610e0b565b92915050565b6000602082019050610fdc6000830184610e1a565b92915050565b60006020820190508181036000830152610ffb81610e62565b9050919050565b6000602082019050818103600083015261101b81610e85565b9050919050565b6000602082019050818103600083015261103b81610ea8565b9050919050565b6000602082019050818103600083015261105b81610ecb565b9050919050565b6000602082019050818103600083015261107b81610eee565b9050919050565b6000602082019050818103600083015261109b81610f11565b9050919050565b600060208201905081810360008301526110bb81610f34565b9050919050565b600060208201905081810360008301526110db81610f57565b9050919050565b600060208201905081810360008301526110fb81610f7a565b9050919050565b60006020820190506111176000830184610f9d565b92915050565b60006040820190506111326000830185610f9d565b81810360208301526111448184610e29565b90509392505050565b60006060820190506111626000830186610f9d565b81810360208301526111748185610e29565b90506111836040830184610f9d565b949350505050565b60006111956111a6565b90506111a182826112b9565b919050565b6000604051905090565b600067ffffffffffffffff8211156111cb576111ca611391565b5b6111d4826113c0565b9050602081019050919050565b600081519050919050565b600082825260208201905092915050565b60006112088261121b565b9050919050565b60008115159050919050565b600073ffffffffffffffffffffffffffffffffffffffff82169050919050565b6000819050919050565b82818337600083830152505050565b60005b83811015611272578082015181840152602081019050611257565b83811115611281576000848401525b50505050565b6000600282049050600182168061129f57607f821691505b602082108114156112b3576112b2611362565b5b50919050565b6112c2826113c0565b810181811067ffffffffffffffff821117156112e1576112e0611391565b5b80604052505050565b60006112f58261123b565b91507fffffffffffffffffffffffffffffffffffffffffffffffffffffffffffffffff82141561132857611327611333565b5b600182019050919050565b7f4e487b7100000000000000000000000000000000000000000000000000000000600052601160045260246000fd5b7f4e487b7100000000000000000000000000000000000000000000000000000000600052602260045260246000fd5b7f4e487b7100000000000000000000000000000000000000000000000000000000600052604160045260246000fd5b6000601f19601f8301169050919050565b7f43616e6e6f742072656d6f76652063616e64696461746573206166746572207660008201527f6f74696e672068617320737461727465642e0000000000000000000000000000602082015250565b7f596f75206861766520616c726561647920766f7465642e000000000000000000600082015250565b7f566f74696e6720616c726561647920737461727465642e000000000000000000600082015250565b7f566f74696e67206973206e6f74206163746976652e0000000000000000000000600082015250565b7f43616e6e6f74206164642063616e6469646174657320616674657220766f746960008201527f6e672068617320737461727465642e0000000000000000000000000000000000602082015250565b7f4f6e6c792061646d696e2063616e20706572666f726d2074686973206163746960008201527f6f6e000000000000000000000000000000000000000000000000000000000000602082015250565b7f566f74696e67206e6f74206163746976652e0000000000000000000000000000600082015250565b7f43616e64696461746520646f6573206e6f742065786973742e00000000000000600082015250565b7f496e76616c69642063616e6469646174652049442e0000000000000000000000600082015250565b6115bd816111fd565b81146115c857600080fd5b50565b6115d48161123b565b81146115df57600080fd5b5056fea26469706673582212203c58379f6556be6eb6cca23632db62c4d9ee2788a6ef6a541ad0890afe79e14964736f6c63430008040033",
					"opcodes": "PUSH1 0x80 PUSH1 0x40 MSTORE CALLVALUE DUP1 ISZERO PUSH2 0x10 JUMPI PUSH1 0x0 DUP1 REVERT JUMPDEST POP CALLER PUSH1 0x0 DUP1 PUSH2 0x100 EXP DUP2 SLOAD DUP2 PUSH20 0xFFFFFFFFFFFFFFFFFFFFFFFFFFFFFFFFFFFFFFFF MUL NOT AND SWAP1 DUP4 PUSH20 0xFFFFFFFFFFFFFFFFFFFFFFFFFFFFFFFFFFFFFFFF AND MUL OR SWAP1 SSTORE POP PUSH2 0x1618 DUP1 PUSH2 0x60 PUSH1 0x0 CODECOPY PUSH1 0x0 RETURN INVALID PUSH1 0x80 PUSH1 0x40 MSTORE CALLVALUE DUP1 ISZERO PUSH2 0x10 JUMPI PUSH1 0x0 DUP1 REVERT JUMPDEST POP PUSH1 0x4 CALLDATASIZE LT PUSH2 0xB4 JUMPI PUSH1 0x0 CALLDATALOAD PUSH1 0xE0 SHR DUP1 PUSH4 0x462E91EC GT PUSH2 0x71 JUMPI DUP1 PUSH4 0x462E91EC EQ PUSH2 0x18F JUMPI DUP1 PUSH4 0x83D948B7 EQ PUSH2 0x1AB JUMPI DUP1 PUSH4 0x9D5A0529 EQ PUSH2 0x1C9 JUMPI DUP1 PUSH4 0xBC08DF78 EQ PUSH2 0x1E7 JUMPI DUP1 PUSH4 0xC3403DDF EQ PUSH2 0x205 JUMPI DUP1 PUSH4 0xF851A440 EQ PUSH2 0x20F JUMPI PUSH2 0xB4 JUMP JUMPDEST DUP1 PUSH4 0x121B93F EQ PUSH2 0xB9 JUMPI DUP1 PUSH4 0x9E9D7E2 EQ PUSH2 0xD5 JUMPI DUP1 PUSH4 0x9EEF43E EQ PUSH2 0xF1 JUMPI DUP1 PUSH4 0x1EC6B60A EQ PUSH2 0x121 JUMPI DUP1 PUSH4 0x3477EE2E EQ PUSH2 0x12B JUMPI DUP1 PUSH4 0x35B8E820 EQ PUSH2 0x15D JUMPI JUMPDEST PUSH1 0x0 DUP1 REVERT JUMPDEST PUSH2 0xD3 PUSH1 0x4 DUP1 CALLDATASIZE SUB DUP2 ADD SWAP1 PUSH2 0xCE SWAP2 SWAP1 PUSH2 0xDE2 JUMP JUMPDEST PUSH2 0x22D JUMP JUMPDEST STOP JUMPDEST PUSH2 0xEF PUSH1 0x4 DUP1 CALLDATASIZE SUB DUP2 ADD SWAP1 PUSH2 0xEA SWAP2 SWAP1 PUSH2 0xDE2 JUMP JUMPDEST PUSH2 0x43B JUMP JUMPDEST STOP JUMPDEST PUSH2 0x10B PUSH1 0x4 DUP1 CALLDATASIZE SUB DUP2 ADD SWAP1 PUSH2 0x106 SWAP2 SWAP1 PUSH2 0xD78 JUMP JUMPDEST PUSH2 0x596 JUMP JUMPDEST PUSH1 0x40 MLOAD PUSH2 0x118 SWAP2 SWAP1 PUSH2 0xFC7 JUMP JUMPDEST PUSH1 0x40 MLOAD DUP1 SWAP2 SUB SWAP1 RETURN JUMPDEST PUSH2 0x129 PUSH2 0x5B6 JUMP JUMPDEST STOP JUMPDEST PUSH2 0x145 PUSH1 0x4 DUP1 CALLDATASIZE SUB DUP2 ADD SWAP1 PUSH2 0x140 SWAP2 SWAP1 PUSH2 0xDE2 JUMP JUMPDEST PUSH2 0x6F8 JUMP JUMPDEST PUSH1 0x40 MLOAD PUSH2 0x154 SWAP4 SWAP3 SWAP2 SWAP1 PUSH2 0x114D JUMP JUMPDEST PUSH1 0x40 MLOAD DUP1 SWAP2 SUB SWAP1 RETURN JUMPDEST PUSH2 0x177 PUSH1 0x4 DUP1 CALLDATASIZE SUB DUP2 ADD SWAP1 PUSH2 0x172 SWAP2 SWAP1 PUSH2 0xDE2 JUMP JUMPDEST PUSH2 0x7AA JUMP JUMPDEST PUSH1 0x40 MLOAD PUSH2 0x186 SWAP4 SWAP3 SWAP2 SWAP1 PUSH2 0x114D JUMP JUMPDEST PUSH1 0x40 MLOAD DUP1 SWAP2 SUB SWAP1 RETURN JUMPDEST PUSH2 0x1A9 PUSH1 0x4 DUP1 CALLDATASIZE SUB DUP2 ADD SWAP1 PUSH2 0x1A4 SWAP2 SWAP1 PUSH2 0xDA1 JUMP JUMPDEST PUSH2 0x8D9 JUMP JUMPDEST STOP JUMPDEST PUSH2 0x1B3 PUSH2 0xA74 JUMP JUMPDEST PUSH1 0x40 MLOAD PUSH2 0x1C0 SWAP2 SWAP1 PUSH2 0xFC7 JUMP JUMPDEST PUSH1 0x40 MLOAD DUP1 SWAP2 SUB SWAP1 RETURN JUMPDEST PUSH2 0x1D1 PUSH2 0xA87 JUMP JUMPDEST PUSH1 0x40 MLOAD PUSH2 0x1DE SWAP2 SWAP1 PUSH2 0xFC7 JUMP JUMPDEST PUSH1 0x40 MLOAD DUP1 SWAP2 SUB SWAP1 RETURN JUMPDEST PUSH2 0x1EF PUSH2 0xA9A JUMP JUMPDEST PUSH1 0x40 MLOAD PUSH2 0x1FC SWAP2 SWAP1 PUSH2 0x1102 JUMP JUMPDEST PUSH1 0x40 MLOAD DUP1 SWAP2 SUB SWAP1 RETURN JUMPDEST PUSH2 0x20D PUSH2 0xAA0 JUMP JUMPDEST STOP JUMPDEST PUSH2 0x217 PUSH2 0xBDF JUMP JUMPDEST PUSH1 0x40 MLOAD PUSH2 0x224 SWAP2 SWAP1 PUSH2 0xFAC JUMP JUMPDEST PUSH1 0x40 MLOAD DUP1 SWAP2 SUB SWAP1 RETURN JUMPDEST PUSH1 0x4 PUSH1 0x0 SWAP1 SLOAD SWAP1 PUSH2 0x100 EXP SWAP1 DIV PUSH1 0xFF AND DUP1 ISZERO PUSH2 0x256 JUMPI POP PUSH1 0x4 PUSH1 0x1 SWAP1 SLOAD SWAP1 PUSH2 0x100 EXP SWAP1 DIV PUSH1 0xFF AND ISZERO JUMPDEST PUSH2 0x295 JUMPI PUSH1 0x40 MLOAD PUSH32 0x8C379A000000000000000000000000000000000000000000000000000000000 DUP2 MSTORE PUSH1 0x4 ADD PUSH2 0x28C SWAP1 PUSH2 0x1042 JUMP JUMPDEST PUSH1 0x40 MLOAD DUP1 SWAP2 SUB SWAP1 REVERT JUMPDEST PUSH1 0x3 PUSH1 0x0 CALLER PUSH20 0xFFFFFFFFFFFFFFFFFFFFFFFFFFFFFFFFFFFFFFFF AND PUSH20 0xFFFFFFFFFFFFFFFFFFFFFFFFFFFFFFFFFFFFFFFF AND DUP2 MSTORE PUSH1 0x20 ADD SWAP1 DUP2 MSTORE PUSH1 0x20 ADD PUSH1 0x0 KECCAK256 PUSH1 0x0 SWAP1 SLOAD SWAP1 PUSH2 0x100 EXP SWAP1 DIV PUSH1 0xFF AND ISZERO PUSH2 0x322 JUMPI PUSH1 0x40 MLOAD PUSH32 0x8C379A000000000000000000000000000000000000000000000000000000000 DUP2 MSTORE PUSH1 0x4 ADD PUSH2 0x319 SWAP1 PUSH2 0x1002 JUMP JUMPDEST PUSH1 0x40 MLOAD DUP1 SWAP2 SUB SWAP1 REVERT JUMPDEST PUSH1 0x1 SLOAD DUP2 LT PUSH2 0x366 JUMPI PUSH1 0x40 MLOAD PUSH32 0x8C379A000000000000000000000000000000000000000000000000000000000 DUP2 MSTORE PUSH1 0x4 ADD PUSH2 0x35D SWAP1 PUSH2 0x10E2 JUMP JUMPDEST PUSH1 0x40 MLOAD DUP1 SWAP2 SUB SWAP1 REVERT JUMPDEST PUSH1 0x2 PUSH1 0x0 DUP3 DUP2 MSTORE PUSH1 0x20 ADD SWAP1 DUP2 MSTORE PUSH1 0x20 ADD PUSH1 0x0 KECCAK256 PUSH1 0x2 ADD PUSH1 0x0 DUP2 SLOAD DUP1 SWAP3 SWAP2 SWAP1 PUSH2 0x38D SWAP1 PUSH2 0x12EA JUMP JUMPDEST SWAP2 SWAP1 POP SSTORE POP PUSH1 0x1 PUSH1 0x3 PUSH1 0x0 CALLER PUSH20 0xFFFFFFFFFFFFFFFFFFFFFFFFFFFFFFFFFFFFFFFF AND PUSH20 0xFFFFFFFFFFFFFFFFFFFFFFFFFFFFFFFFFFFFFFFF AND DUP2 MSTORE PUSH1 0x20 ADD SWAP1 DUP2 MSTORE PUSH1 0x20 ADD PUSH1 0x0 KECCAK256 PUSH1 0x0 PUSH2 0x100 EXP DUP2 SLOAD DUP2 PUSH1 0xFF MUL NOT AND SWAP1 DUP4 ISZERO ISZERO MUL OR SWAP1 SSTORE POP CALLER PUSH20 0xFFFFFFFFFFFFFFFFFFFFFFFFFFFFFFFFFFFFFFFF AND PUSH32 0x4D99B957A2BC29A30EBD96A7BE8E68FE50A3C701DB28A91436490B7D53870CA4 DUP3 PUSH1 0x40 MLOAD PUSH2 0x430 SWAP2 SWAP1 PUSH2 0x1102 JUMP JUMPDEST PUSH1 0x40 MLOAD DUP1 SWAP2 SUB SWAP1 LOG2 POP JUMP JUMPDEST CALLER PUSH20 0xFFFFFFFFFFFFFFFFFFFFFFFFFFFFFFFFFFFFFFFF AND PUSH1 0x0 DUP1 SLOAD SWAP1 PUSH2 0x100 EXP SWAP1 DIV PUSH20 0xFFFFFFFFFFFFFFFFFFFFFFFFFFFFFFFFFFFFFFFF AND PUSH20 0xFFFFFFFFFFFFFFFFFFFFFFFFFFFFFFFFFFFFFFFF AND EQ PUSH2 0x4C9 JUMPI PUSH1 0x40 MLOAD PUSH32 0x8C379A000000000000000000000000000000000000000000000000000000000 DUP2 MSTORE PUSH1 0x4 ADD PUSH2 0x4C0 SWAP1 PUSH2 0x1082 JUMP JUMPDEST PUSH1 0x40 MLOAD DUP1 SWAP2 SUB SWAP1 REVERT JUMPDEST PUSH1 0x4 PUSH1 0x0 SWAP1 SLOAD SWAP1 PUSH2 0x100 EXP SWAP1 DIV PUSH1 0xFF AND ISZERO PUSH2 0x519 JUMPI PUSH1 0x40 MLOAD PUSH32 0x8C379A000000000000000000000000000000000000000000000000000000000 DUP2 MSTORE PUSH1 0x4 ADD PUSH2 0x510 SWAP1 PUSH2 0xFE2 JUMP JUMPDEST PUSH1 0x40 MLOAD DUP1 SWAP2 SUB SWAP1 REVERT JUMPDEST PUSH1 0x1 SLOAD DUP2 LT PUSH2 0x55D JUMPI PUSH1 0x40 MLOAD PUSH32 0x8C379A000000000000000000000000000000000000000000000000000000000 DUP2 MSTORE PUSH1 0x4 ADD PUSH2 0x554 SWAP1 PUSH2 0x10C2 JUMP JUMPDEST PUSH1 0x40 MLOAD DUP1 SWAP2 SUB SWAP1 REVERT JUMPDEST PUSH1 0x2 PUSH1 0x0 DUP3 DUP2 MSTORE PUSH1 0x20 ADD SWAP1 DUP2 MSTORE PUSH1 0x20 ADD PUSH1 0x0 KECCAK256 PUSH1 0x0 DUP1 DUP3 ADD PUSH1 0x0 SWAP1 SSTORE PUSH1 0x1 DUP3 ADD PUSH1 0x0 PUSH2 0x589 SWAP2 SWAP1 PUSH2 0xC03 JUMP JUMPDEST PUSH1 0x2 DUP3 ADD PUSH1 0x0 SWAP1 SSTORE POP POP POP JUMP JUMPDEST PUSH1 0x3 PUSH1 0x20 MSTORE DUP1 PUSH1 0x0 MSTORE PUSH1 0x40 PUSH1 0x0 KECCAK256 PUSH1 0x0 SWAP2 POP SLOAD SWAP1 PUSH2 0x100 EXP SWAP1 DIV PUSH1 0xFF AND DUP2 JUMP JUMPDEST CALLER PUSH20 0xFFFFFFFFFFFFFFFFFFFFFFFFFFFFFFFFFFFFFFFF AND PUSH1 0x0 DUP1 SLOAD SWAP1 PUSH2 0x100 EXP SWAP1 DIV PUSH20 0xFFFFFFFFFFFFFFFFFFFFFFFFFFFFFFFFFFFFFFFF AND PUSH20 0xFFFFFFFFFFFFFFFFFFFFFFFFFFFFFFFFFFFFFFFF AND EQ PUSH2 0x644 JUMPI PUSH1 0x40 MLOAD PUSH32 0x8C379A000000000000000000000000000000000000000000000000000000000 DUP2 MSTORE PUSH1 0x4 ADD PUSH2 0x63B SWAP1 PUSH2 0x1082 JUMP JUMPDEST PUSH1 0x40 MLOAD DUP1 SWAP2 SUB SWAP1 REVERT JUMPDEST PUSH1 0x4 PUSH1 0x0 SWAP1 SLOAD SWAP1 PUSH2 0x100 EXP SWAP1 DIV PUSH1 0xFF AND ISZERO PUSH2 0x694 JUMPI PUSH1 0x40 MLOAD PUSH32 0x8C379A000000000000000000000000000000000000000000000000000000000 DUP2 MSTORE PUSH1 0x4 ADD PUSH2 0x68B SWAP1 PUSH2 0x1022 JUMP JUMPDEST PUSH1 0x40 MLOAD DUP1 SWAP2 SUB SWAP1 REVERT JUMPDEST PUSH1 0x1 PUSH1 0x4 PUSH1 0x0 PUSH2 0x100 EXP DUP2 SLOAD DUP2 PUSH1 0xFF MUL NOT AND SWAP1 DUP4 ISZERO ISZERO MUL OR SWAP1 SSTORE POP PUSH1 0x0 PUSH1 0x4 PUSH1 0x1 PUSH2 0x100 EXP DUP2 SLOAD DUP2 PUSH1 0xFF MUL NOT AND SWAP1 DUP4 ISZERO ISZERO MUL OR SWAP1 SSTORE POP PUSH32 0x877E2548498F42B7975A186B94EF1D32C86D420B7B806DD2BE2BEA293B895904 PUSH1 0x40 MLOAD PUSH1 0x40 MLOAD DUP1 SWAP2 SUB SWAP1 LOG1 JUMP JUMPDEST PUSH1 0x2 PUSH1 0x20 MSTORE DUP1 PUSH1 0x0 MSTORE PUSH1 0x40 PUSH1 0x0 KECCAK256 PUSH1 0x0 SWAP2 POP SWAP1 POP DUP1 PUSH1 0x0 ADD SLOAD SWAP1 DUP1 PUSH1 0x1 ADD DUP1 SLOAD PUSH2 0x721 SWAP1 PUSH2 0x1287 JUMP JUMPDEST DUP1 PUSH1 0x1F ADD PUSH1 0x20 DUP1 SWAP2 DIV MUL PUSH1 0x20 ADD PUSH1 0x40 MLOAD SWAP1 DUP2 ADD PUSH1 0x40 MSTORE DUP1 SWAP3 SWAP2 SWAP1 DUP2 DUP2 MSTORE PUSH1 0x20 ADD DUP3 DUP1 SLOAD PUSH2 0x74D SWAP1 PUSH2 0x1287 JUMP JUMPDEST DUP1 ISZERO PUSH2 0x79A JUMPI DUP1 PUSH1 0x1F LT PUSH2 0x76F JUMPI PUSH2 0x100 DUP1 DUP4 SLOAD DIV MUL DUP4 MSTORE SWAP2 PUSH1 0x20 ADD SWAP2 PUSH2 0x79A JUMP JUMPDEST DUP3 ADD SWAP2 SWAP1 PUSH1 0x0 MSTORE PUSH1 0x20 PUSH1 0x0 KECCAK256 SWAP1 JUMPDEST DUP2 SLOAD DUP2 MSTORE SWAP1 PUSH1 0x1 ADD SWAP1 PUSH1 0x20 ADD DUP1 DUP4 GT PUSH2 0x77D JUMPI DUP3 SWAP1 SUB PUSH1 0x1F AND DUP3 ADD SWAP2 JUMPDEST POP POP POP POP POP SWAP1 DUP1 PUSH1 0x2 ADD SLOAD SWAP1 POP DUP4 JUMP JUMPDEST PUSH1 0x0 PUSH1 0x60 PUSH1 0x0 PUSH1 0x1 SLOAD DUP5 LT PUSH2 0x7F4 JUMPI PUSH1 0x40 MLOAD PUSH32 0x8C379A000000000000000000000000000000000000000000000000000000000 DUP2 MSTORE PUSH1 0x4 ADD PUSH2 0x7EB SWAP1 PUSH2 0x10C2 JUMP JUMPDEST PUSH1 0x40 MLOAD DUP1 SWAP2 SUB SWAP1 REVERT JUMPDEST PUSH1 0x0 PUSH1 0x2 PUSH1 0x0 DUP7 DUP2 MSTORE PUSH1 0x20 ADD SWAP1 DUP2 MSTORE PUSH1 0x20 ADD PUSH1 0x0 KECCAK256 PUSH1 0x40 MLOAD DUP1 PUSH1 0x60 ADD PUSH1 0x40 MSTORE SWAP1 DUP2 PUSH1 0x0 DUP3 ADD SLOAD DUP2 MSTORE PUSH1 0x20 ADD PUSH1 0x1 DUP3 ADD DUP1 SLOAD PUSH2 0x82E SWAP1 PUSH2 0x1287 JUMP JUMPDEST DUP1 PUSH1 0x1F ADD PUSH1 0x20 DUP1 SWAP2 DIV MUL PUSH1 0x20 ADD PUSH1 0x40 MLOAD SWAP1 DUP2 ADD PUSH1 0x40 MSTORE DUP1 SWAP3 SWAP2 SWAP1 DUP2 DUP2 MSTORE PUSH1 0x20 ADD DUP3 DUP1 SLOAD PUSH2 0x85A SWAP1 PUSH2 0x1287 JUMP JUMPDEST DUP1 ISZERO PUSH2 0x8A7 JUMPI DUP1 PUSH1 0x1F LT PUSH2 0x87C JUMPI PUSH2 0x100 DUP1 DUP4 SLOAD DIV MUL DUP4 MSTORE SWAP2 PUSH1 0x20 ADD SWAP2 PUSH2 0x8A7 JUMP JUMPDEST DUP3 ADD SWAP2 SWAP1 PUSH1 0x0 MSTORE PUSH1 0x20 PUSH1 0x0 KECCAK256 SWAP1 JUMPDEST DUP2 SLOAD DUP2 MSTORE SWAP1 PUSH1 0x1 ADD SWAP1 PUSH1 0x20 ADD DUP1 DUP4 GT PUSH2 0x88A JUMPI DUP3 SWAP1 SUB PUSH1 0x1F AND DUP3 ADD SWAP2 JUMPDEST POP POP POP POP POP DUP2 MSTORE PUSH1 0x20 ADD PUSH1 0x2 DUP3 ADD SLOAD DUP2 MSTORE POP POP SWAP1 POP DUP1 PUSH1 0x0 ADD MLOAD DUP2 PUSH1 0x20 ADD MLOAD DUP3 PUSH1 0x40 ADD MLOAD SWAP4 POP SWAP4 POP SWAP4 POP POP SWAP2 SWAP4 SWAP1 SWAP3 POP JUMP JUMPDEST CALLER PUSH20 0xFFFFFFFFFFFFFFFFFFFFFFFFFFFFFFFFFFFFFFFF AND PUSH1 0x0 DUP1 SLOAD SWAP1 PUSH2 0x100 EXP SWAP1 DIV PUSH20 0xFFFFFFFFFFFFFFFFFFFFFFFFFFFFFFFFFFFFFFFF AND PUSH20 0xFFFFFFFFFFFFFFFFFFFFFFFFFFFFFFFFFFFFFFFF AND EQ PUSH2 0x967 JUMPI PUSH1 0x40 MLOAD PUSH32 0x8C379A000000000000000000000000000000000000000000000000000000000 DUP2 MSTORE PUSH1 0x4 ADD PUSH2 0x95E SWAP1 PUSH2 0x1082 JUMP JUMPDEST PUSH1 0x40 MLOAD DUP1 SWAP2 SUB SWAP1 REVERT JUMPDEST PUSH1 0x4 PUSH1 0x0 SWAP1 SLOAD SWAP1 PUSH2 0x100 EXP SWAP1 DIV PUSH1 0xFF AND ISZERO PUSH2 0x9B7 JUMPI PUSH1 0x40 MLOAD PUSH32 0x8C379A000000000000000000000000000000000000000000000000000000000 DUP2 MSTORE PUSH1 0x4 ADD PUSH2 0x9AE SWAP1 PUSH2 0x1062 JUMP JUMPDEST PUSH1 0x40 MLOAD DUP1 SWAP2 SUB SWAP1 REVERT JUMPDEST PUSH1 0x40 MLOAD DUP1 PUSH1 0x60 ADD PUSH1 0x40 MSTORE DUP1 PUSH1 0x1 SLOAD DUP2 MSTORE PUSH1 0x20 ADD DUP3 DUP2 MSTORE PUSH1 0x20 ADD PUSH1 0x0 DUP2 MSTORE POP PUSH1 0x2 PUSH1 0x0 PUSH1 0x1 SLOAD DUP2 MSTORE PUSH1 0x20 ADD SWAP1 DUP2 MSTORE PUSH1 0x20 ADD PUSH1 0x0 KECCAK256 PUSH1 0x0 DUP3 ADD MLOAD DUP2 PUSH1 0x0 ADD SSTORE PUSH1 0x20 DUP3 ADD MLOAD DUP2 PUSH1 0x1 ADD SWAP1 DUP1 MLOAD SWAP1 PUSH1 0x20 ADD SWAP1 PUSH2 0xA10 SWAP3 SWAP2 SWAP1 PUSH2 0xC43 JUMP JUMPDEST POP PUSH1 0x40 DUP3 ADD MLOAD DUP2 PUSH1 0x2 ADD SSTORE SWAP1 POP POP PUSH32 0xE83B2A43E7E82D975C8A0A6D2F045153C869E111136A34D1889AB7B598E396A3 PUSH1 0x1 SLOAD DUP3 PUSH1 0x40 MLOAD PUSH2 0xA51 SWAP3 SWAP2 SWAP1 PUSH2 0x111D JUMP JUMPDEST PUSH1 0x40 MLOAD DUP1 SWAP2 SUB SWAP1 LOG1 PUSH1 0x1 PUSH1 0x0 DUP2 SLOAD DUP1 SWAP3 SWAP2 SWAP1 PUSH2 0xA6C SWAP1 PUSH2 0x12EA JUMP JUMPDEST SWAP2 SWAP1 POP SSTORE POP POP JUMP JUMPDEST PUSH1 0x4 PUSH1 0x0 SWAP1 SLOAD SWAP1 PUSH2 0x100 EXP SWAP1 DIV PUSH1 0xFF AND DUP2 JUMP JUMPDEST PUSH1 0x4 PUSH1 0x1 SWAP1 SLOAD SWAP1 PUSH2 0x100 EXP SWAP1 DIV PUSH1 0xFF AND DUP2 JUMP JUMPDEST PUSH1 0x1 SLOAD DUP2 JUMP JUMPDEST CALLER PUSH20 0xFFFFFFFFFFFFFFFFFFFFFFFFFFFFFFFFFFFFFFFF AND PUSH1 0x0 DUP1 SLOAD SWAP1 PUSH2 0x100 EXP SWAP1 DIV PUSH20 0xFFFFFFFFFFFFFFFFFFFFFFFFFFFFFFFFFFFFFFFF AND PUSH20 0xFFFFFFFFFFFFFFFFFFFFFFFFFFFFFFFFFFFFFFFF AND EQ PUSH2 0xB2E JUMPI PUSH1 0x40 MLOAD PUSH32 0x8C379A000000000000000000000000000000000000000000000000000000000 DUP2 MSTORE PUSH1 0x4 ADD PUSH2 0xB25 SWAP1 PUSH2 0x1082 JUMP JUMPDEST PUSH1 0x40 MLOAD DUP1 SWAP2 SUB SWAP1 REVERT JUMPDEST PUSH1 0x4 PUSH1 0x0 SWAP1 SLOAD SWAP1 PUSH2 0x100 EXP SWAP1 DIV PUSH1 0xFF AND DUP1 ISZERO PUSH2 0xB57 JUMPI POP PUSH1 0x4 PUSH1 0x1 SWAP1 SLOAD SWAP1 PUSH2 0x100 EXP SWAP1 DIV PUSH1 0xFF AND ISZERO JUMPDEST PUSH2 0xB96 JUMPI PUSH1 0x40 MLOAD PUSH32 0x8C379A000000000000000000000000000000000000000000000000000000000 DUP2 MSTORE PUSH1 0x4 ADD PUSH2 0xB8D SWAP1 PUSH2 0x10A2 JUMP JUMPDEST PUSH1 0x40 MLOAD DUP1 SWAP2 SUB SWAP1 REVERT JUMPDEST PUSH1 0x1 PUSH1 0x4 PUSH1 0x1 PUSH2 0x100 EXP DUP2 SLOAD DUP2 PUSH1 0xFF MUL NOT AND SWAP1 DUP4 ISZERO ISZERO MUL OR SWAP1 SSTORE POP PUSH32 0x7A19ED057DB79E3C2FA0B97A54B43BEF4FCE74B31BB6C01AF514B9A18A7F70AB PUSH1 0x40 MLOAD PUSH1 0x40 MLOAD DUP1 SWAP2 SUB SWAP1 LOG1 JUMP JUMPDEST PUSH1 0x0 DUP1 SLOAD SWAP1 PUSH2 0x100 EXP SWAP1 DIV PUSH20 0xFFFFFFFFFFFFFFFFFFFFFFFFFFFFFFFFFFFFFFFF AND DUP2 JUMP JUMPDEST POP DUP1 SLOAD PUSH2 0xC0F SWAP1 PUSH2 0x1287 JUMP JUMPDEST PUSH1 0x0 DUP3 SSTORE DUP1 PUSH1 0x1F LT PUSH2 0xC21 JUMPI POP PUSH2 0xC40 JUMP JUMPDEST PUSH1 0x1F ADD PUSH1 0x20 SWAP1 DIV SWAP1 PUSH1 0x0 MSTORE PUSH1 0x20 PUSH1 0x0 KECCAK256 SWAP1 DUP2 ADD SWAP1 PUSH2 0xC3F SWAP2 SWAP1 PUSH2 0xCC9 JUMP JUMPDEST JUMPDEST POP JUMP JUMPDEST DUP3 DUP1 SLOAD PUSH2 0xC4F SWAP1 PUSH2 0x1287 JUMP JUMPDEST SWAP1 PUSH1 0x0 MSTORE PUSH1 0x20 PUSH1 0x0 KECCAK256 SWAP1 PUSH1 0x1F ADD PUSH1 0x20 SWAP1 DIV DUP2 ADD SWAP3 DUP3 PUSH2 0xC71 JUMPI PUSH1 0x0 DUP6 SSTORE PUSH2 0xCB8 JUMP JUMPDEST DUP3 PUSH1 0x1F LT PUSH2 0xC8A JUMPI DUP1 MLOAD PUSH1 0xFF NOT AND DUP4 DUP1 ADD OR DUP6 SSTORE PUSH2 0xCB8 JUMP JUMPDEST DUP3 DUP1 ADD PUSH1 0x1 ADD DUP6 SSTORE DUP3 ISZERO PUSH2 0xCB8 JUMPI SWAP2 DUP3 ADD JUMPDEST DUP3 DUP2 GT ISZERO PUSH2 0xCB7 JUMPI DUP3 MLOAD DUP3 SSTORE SWAP2 PUSH1 0x20 ADD SWAP2 SWAP1 PUSH1 0x1 ADD SWAP1 PUSH2 0xC9C JUMP JUMPDEST JUMPDEST POP SWAP1 POP PUSH2 0xCC5 SWAP2 SWAP1 PUSH2 0xCC9 JUMP JUMPDEST POP SWAP1 JUMP JUMPDEST JUMPDEST DUP1 DUP3 GT ISZERO PUSH2 0xCE2 JUMPI PUSH1 0x0 DUP2 PUSH1 0x0 SWAP1 SSTORE POP PUSH1 0x1 ADD PUSH2 0xCCA JUMP JUMPDEST POP SWAP1 JUMP JUMPDEST PUSH1 0x0 PUSH2 0xCF9 PUSH2 0xCF4 DUP5 PUSH2 0x11B0 JUMP JUMPDEST PUSH2 0x118B JUMP JUMPDEST SWAP1 POP DUP3 DUP2 MSTORE PUSH1 0x20 DUP2 ADD DUP5 DUP5 DUP5 ADD GT ISZERO PUSH2 0xD11 JUMPI PUSH1 0x0 DUP1 REVERT JUMPDEST PUSH2 0xD1C DUP5 DUP3 DUP6 PUSH2 0x1245 JUMP JUMPDEST POP SWAP4 SWAP3 POP POP POP JUMP JUMPDEST PUSH1 0x0 DUP2 CALLDATALOAD SWAP1 POP PUSH2 0xD33 DUP2 PUSH2 0x15B4 JUMP JUMPDEST SWAP3 SWAP2 POP POP JUMP JUMPDEST PUSH1 0x0 DUP3 PUSH1 0x1F DUP4 ADD SLT PUSH2 0xD4A JUMPI PUSH1 0x0 DUP1 REVERT JUMPDEST DUP2 CALLDATALOAD PUSH2 0xD5A DUP5 DUP3 PUSH1 0x20 DUP7 ADD PUSH2 0xCE6 JUMP JUMPDEST SWAP2 POP POP SWAP3 SWAP2 POP POP JUMP JUMPDEST PUSH1 0x0 DUP2 CALLDATALOAD SWAP1 POP PUSH2 0xD72 DUP2 PUSH2 0x15CB JUMP JUMPDEST SWAP3 SWAP2 POP POP JUMP JUMPDEST PUSH1 0x0 PUSH1 0x20 DUP3 DUP5 SUB SLT ISZERO PUSH2 0xD8A JUMPI PUSH1 0x0 DUP1 REVERT JUMPDEST PUSH1 0x0 PUSH2 0xD98 DUP5 DUP3 DUP6 ADD PUSH2 0xD24 JUMP JUMPDEST SWAP2 POP POP SWAP3 SWAP2 POP POP JUMP JUMPDEST PUSH1 0x0 PUSH1 0x20 DUP3 DUP5 SUB SLT ISZERO PUSH2 0xDB3 JUMPI PUSH1 0x0 DUP1 REVERT JUMPDEST PUSH1 0x0 DUP3 ADD CALLDATALOAD PUSH8 0xFFFFFFFFFFFFFFFF DUP2 GT ISZERO PUSH2 0xDCD JUMPI PUSH1 0x0 DUP1 REVERT JUMPDEST PUSH2 0xDD9 DUP5 DUP3 DUP6 ADD PUSH2 0xD39 JUMP JUMPDEST SWAP2 POP POP SWAP3 SWAP2 POP POP JUMP JUMPDEST PUSH1 0x0 PUSH1 0x20 DUP3 DUP5 SUB SLT ISZERO PUSH2 0xDF4 JUMPI PUSH1 0x0 DUP1 REVERT JUMPDEST PUSH1 0x0 PUSH2 0xE02 DUP5 DUP3 DUP6 ADD PUSH2 0xD63 JUMP JUMPDEST SWAP2 POP POP SWAP3 SWAP2 POP POP JUMP JUMPDEST PUSH2 0xE14 DUP2 PUSH2 0x11FD JUMP JUMPDEST DUP3 MSTORE POP POP JUMP JUMPDEST PUSH2 0xE23 DUP2 PUSH2 0x120F JUMP JUMPDEST DUP3 MSTORE POP POP JUMP JUMPDEST PUSH1 0x0 PUSH2 0xE34 DUP3 PUSH2 0x11E1 JUMP JUMPDEST PUSH2 0xE3E DUP2 DUP6 PUSH2 0x11EC JUMP JUMPDEST SWAP4 POP PUSH2 0xE4E DUP2 DUP6 PUSH1 0x20 DUP7 ADD PUSH2 0x1254 JUMP JUMPDEST PUSH2 0xE57 DUP2 PUSH2 0x13C0 JUMP JUMPDEST DUP5 ADD SWAP2 POP POP SWAP3 SWAP2 POP POP JUMP JUMPDEST PUSH1 0x0 PUSH2 0xE6F PUSH1 0x32 DUP4 PUSH2 0x11EC JUMP JUMPDEST SWAP2 POP PUSH2 0xE7A DUP3 PUSH2 0x13D1 JUMP JUMPDEST PUSH1 0x40 DUP3 ADD SWAP1 POP SWAP2 SWAP1 POP JUMP JUMPDEST PUSH1 0x0 PUSH2 0xE92 PUSH1 0x17 DUP4 PUSH2 0x11EC JUMP JUMPDEST SWAP2 POP PUSH2 0xE9D DUP3 PUSH2 0x1420 JUMP JUMPDEST PUSH1 0x20 DUP3 ADD SWAP1 POP SWAP2 SWAP1 POP JUMP JUMPDEST PUSH1 0x0 PUSH2 0xEB5 PUSH1 0x17 DUP4 PUSH2 0x11EC JUMP JUMPDEST SWAP2 POP PUSH2 0xEC0 DUP3 PUSH2 0x1449 JUMP JUMPDEST PUSH1 0x20 DUP3 ADD SWAP1 POP SWAP2 SWAP1 POP JUMP JUMPDEST PUSH1 0x0 PUSH2 0xED8 PUSH1 0x15 DUP4 PUSH2 0x11EC JUMP JUMPDEST SWAP2 POP PUSH2 0xEE3 DUP3 PUSH2 0x1472 JUMP JUMPDEST PUSH1 0x20 DUP3 ADD SWAP1 POP SWAP2 SWAP1 POP JUMP JUMPDEST PUSH1 0x0 PUSH2 0xEFB PUSH1 0x2F DUP4 PUSH2 0x11EC JUMP JUMPDEST SWAP2 POP PUSH2 0xF06 DUP3 PUSH2 0x149B JUMP JUMPDEST PUSH1 0x40 DUP3 ADD SWAP1 POP SWAP2 SWAP1 POP JUMP JUMPDEST PUSH1 0x0 PUSH2 0xF1E PUSH1 0x22 DUP4 PUSH2 0x11EC JUMP JUMPDEST SWAP2 POP PUSH2 0xF29 DUP3 PUSH2 0x14EA JUMP JUMPDEST PUSH1 0x40 DUP3 ADD SWAP1 POP SWAP2 SWAP1 POP JUMP JUMPDEST PUSH1 0x0 PUSH2 0xF41 PUSH1 0x12 DUP4 PUSH2 0x11EC JUMP JUMPDEST SWAP2 POP PUSH2 0xF4C DUP3 PUSH2 0x1539 JUMP JUMPDEST PUSH1 0x20 DUP3 ADD SWAP1 POP SWAP2 SWAP1 POP JUMP JUMPDEST PUSH1 0x0 PUSH2 0xF64 PUSH1 0x19 DUP4 PUSH2 0x11EC JUMP JUMPDEST SWAP2 POP PUSH2 0xF6F DUP3 PUSH2 0x1562 JUMP JUMPDEST PUSH1 0x20 DUP3 ADD SWAP1 POP SWAP2 SWAP1 POP JUMP JUMPDEST PUSH1 0x0 PUSH2 0xF87 PUSH1 0x15 DUP4 PUSH2 0x11EC JUMP JUMPDEST SWAP2 POP PUSH2 0xF92 DUP3 PUSH2 0x158B JUMP JUMPDEST PUSH1 0x20 DUP3 ADD SWAP1 POP SWAP2 SWAP1 POP JUMP JUMPDEST PUSH2 0xFA6 DUP2 PUSH2 0x123B JUMP JUMPDEST DUP3 MSTORE POP POP JUMP JUMPDEST PUSH1 0x0 PUSH1 0x20 DUP3 ADD SWAP1 POP PUSH2 0xFC1 PUSH1 0x0 DUP4 ADD DUP5 PUSH2 0xE0B JUMP JUMPDEST SWAP3 SWAP2 POP POP JUMP JUMPDEST PUSH1 0x0 PUSH1 0x20 DUP3 ADD SWAP1 POP PUSH2 0xFDC PUSH1 0x0 DUP4 ADD DUP5 PUSH2 0xE1A JUMP JUMPDEST SWAP3 SWAP2 POP POP JUMP JUMPDEST PUSH1 0x0 PUSH1 0x20 DUP3 ADD SWAP1 POP DUP2 DUP2 SUB PUSH1 0x0 DUP4 ADD MSTORE PUSH2 0xFFB DUP2 PUSH2 0xE62 JUMP JUMPDEST SWAP1 POP SWAP2 SWAP1 POP JUMP JUMPDEST PUSH1 0x0 PUSH1 0x20 DUP3 ADD SWAP1 POP DUP2 DUP2 SUB PUSH1 0x0 DUP4 ADD MSTORE PUSH2 0x101B DUP2 PUSH2 0xE85 JUMP JUMPDEST SWAP1 POP SWAP2 SWAP1 POP JUMP JUMPDEST PUSH1 0x0 PUSH1 0x20 DUP3 ADD SWAP1 POP DUP2 DUP2 SUB PUSH1 0x0 DUP4 ADD MSTORE PUSH2 0x103B DUP2 PUSH2 0xEA8 JUMP JUMPDEST SWAP1 POP SWAP2 SWAP1 POP JUMP JUMPDEST PUSH1 0x0 PUSH1 0x20 DUP3 ADD SWAP1 POP DUP2 DUP2 SUB PUSH1 0x0 DUP4 ADD MSTORE PUSH2 0x105B DUP2 PUSH2 0xECB JUMP JUMPDEST SWAP1 POP SWAP2 SWAP1 POP JUMP JUMPDEST PUSH1 0x0 PUSH1 0x20 DUP3 ADD SWAP1 POP DUP2 DUP2 SUB PUSH1 0x0 DUP4 ADD MSTORE PUSH2 0x107B DUP2 PUSH2 0xEEE JUMP JUMPDEST SWAP1 POP SWAP2 SWAP1 POP JUMP JUMPDEST PUSH1 0x0 PUSH1 0x20 DUP3 ADD SWAP1 POP DUP2 DUP2 SUB PUSH1 0x0 DUP4 ADD MSTORE PUSH2 0x109B DUP2 PUSH2 0xF11 JUMP JUMPDEST SWAP1 POP SWAP2 SWAP1 POP JUMP JUMPDEST PUSH1 0x0 PUSH1 0x20 DUP3 ADD SWAP1 POP DUP2 DUP2 SUB PUSH1 0x0 DUP4 ADD MSTORE PUSH2 0x10BB DUP2 PUSH2 0xF34 JUMP JUMPDEST SWAP1 POP SWAP2 SWAP1 POP JUMP JUMPDEST PUSH1 0x0 PUSH1 0x20 DUP3 ADD SWAP1 POP DUP2 DUP2 SUB PUSH1 0x0 DUP4 ADD MSTORE PUSH2 0x10DB DUP2 PUSH2 0xF57 JUMP JUMPDEST SWAP1 POP SWAP2 SWAP1 POP JUMP JUMPDEST PUSH1 0x0 PUSH1 0x20 DUP3 ADD SWAP1 POP DUP2 DUP2 SUB PUSH1 0x0 DUP4 ADD MSTORE PUSH2 0x10FB DUP2 PUSH2 0xF7A JUMP JUMPDEST SWAP1 POP SWAP2 SWAP1 POP JUMP JUMPDEST PUSH1 0x0 PUSH1 0x20 DUP3 ADD SWAP1 POP PUSH2 0x1117 PUSH1 0x0 DUP4 ADD DUP5 PUSH2 0xF9D JUMP JUMPDEST SWAP3 SWAP2 POP POP JUMP JUMPDEST PUSH1 0x0 PUSH1 0x40 DUP3 ADD SWAP1 POP PUSH2 0x1132 PUSH1 0x0 DUP4 ADD DUP6 PUSH2 0xF9D JUMP JUMPDEST DUP2 DUP2 SUB PUSH1 0x20 DUP4 ADD MSTORE PUSH2 0x1144 DUP2 DUP5 PUSH2 0xE29 JUMP JUMPDEST SWAP1 POP SWAP4 SWAP3 POP POP POP JUMP JUMPDEST PUSH1 0x0 PUSH1 0x60 DUP3 ADD SWAP1 POP PUSH2 0x1162 PUSH1 0x0 DUP4 ADD DUP7 PUSH2 0xF9D JUMP JUMPDEST DUP2 DUP2 SUB PUSH1 0x20 DUP4 ADD MSTORE PUSH2 0x1174 DUP2 DUP6 PUSH2 0xE29 JUMP JUMPDEST SWAP1 POP PUSH2 0x1183 PUSH1 0x40 DUP4 ADD DUP5 PUSH2 0xF9D JUMP JUMPDEST SWAP5 SWAP4 POP POP POP POP JUMP JUMPDEST PUSH1 0x0 PUSH2 0x1195 PUSH2 0x11A6 JUMP JUMPDEST SWAP1 POP PUSH2 0x11A1 DUP3 DUP3 PUSH2 0x12B9 JUMP JUMPDEST SWAP2 SWAP1 POP JUMP JUMPDEST PUSH1 0x0 PUSH1 0x40 MLOAD SWAP1 POP SWAP1 JUMP JUMPDEST PUSH1 0x0 PUSH8 0xFFFFFFFFFFFFFFFF DUP3 GT ISZERO PUSH2 0x11CB JUMPI PUSH2 0x11CA PUSH2 0x1391 JUMP JUMPDEST JUMPDEST PUSH2 0x11D4 DUP3 PUSH2 0x13C0 JUMP JUMPDEST SWAP1 POP PUSH1 0x20 DUP2 ADD SWAP1 POP SWAP2 SWAP1 POP JUMP JUMPDEST PUSH1 0x0 DUP2 MLOAD SWAP1 POP SWAP2 SWAP1 POP JUMP JUMPDEST PUSH1 0x0 DUP3 DUP3 MSTORE PUSH1 0x20 DUP3 ADD SWAP1 POP SWAP3 SWAP2 POP POP JUMP JUMPDEST PUSH1 0x0 PUSH2 0x1208 DUP3 PUSH2 0x121B JUMP JUMPDEST SWAP1 POP SWAP2 SWAP1 POP JUMP JUMPDEST PUSH1 0x0 DUP2 ISZERO ISZERO SWAP1 POP SWAP2 SWAP1 POP JUMP JUMPDEST PUSH1 0x0 PUSH20 0xFFFFFFFFFFFFFFFFFFFFFFFFFFFFFFFFFFFFFFFF DUP3 AND SWAP1 POP SWAP2 SWAP1 POP JUMP JUMPDEST PUSH1 0x0 DUP2 SWAP1 POP SWAP2 SWAP1 POP JUMP JUMPDEST DUP3 DUP2 DUP4 CALLDATACOPY PUSH1 0x0 DUP4 DUP4 ADD MSTORE POP POP POP JUMP JUMPDEST PUSH1 0x0 JUMPDEST DUP4 DUP2 LT ISZERO PUSH2 0x1272 JUMPI DUP1 DUP3 ADD MLOAD DUP2 DUP5 ADD MSTORE PUSH1 0x20 DUP2 ADD SWAP1 POP PUSH2 0x1257 JUMP JUMPDEST DUP4 DUP2 GT ISZERO PUSH2 0x1281 JUMPI PUSH1 0x0 DUP5 DUP5 ADD MSTORE JUMPDEST POP POP POP POP JUMP JUMPDEST PUSH1 0x0 PUSH1 0x2 DUP3 DIV SWAP1 POP PUSH1 0x1 DUP3 AND DUP1 PUSH2 0x129F JUMPI PUSH1 0x7F DUP3 AND SWAP2 POP JUMPDEST PUSH1 0x20 DUP3 LT DUP2 EQ ISZERO PUSH2 0x12B3 JUMPI PUSH2 0x12B2 PUSH2 0x1362 JUMP JUMPDEST JUMPDEST POP SWAP2 SWAP1 POP JUMP JUMPDEST PUSH2 0x12C2 DUP3 PUSH2 0x13C0 JUMP JUMPDEST DUP2 ADD DUP2 DUP2 LT PUSH8 0xFFFFFFFFFFFFFFFF DUP3 GT OR ISZERO PUSH2 0x12E1 JUMPI PUSH2 0x12E0 PUSH2 0x1391 JUMP JUMPDEST JUMPDEST DUP1 PUSH1 0x40 MSTORE POP POP POP JUMP JUMPDEST PUSH1 0x0 PUSH2 0x12F5 DUP3 PUSH2 0x123B JUMP JUMPDEST SWAP2 POP PUSH32 0xFFFFFFFFFFFFFFFFFFFFFFFFFFFFFFFFFFFFFFFFFFFFFFFFFFFFFFFFFFFFFFFF DUP3 EQ ISZERO PUSH2 0x1328 JUMPI PUSH2 0x1327 PUSH2 0x1333 JUMP JUMPDEST JUMPDEST PUSH1 0x1 DUP3 ADD SWAP1 POP SWAP2 SWAP1 POP JUMP JUMPDEST PUSH32 0x4E487B7100000000000000000000000000000000000000000000000000000000 PUSH1 0x0 MSTORE PUSH1 0x11 PUSH1 0x4 MSTORE PUSH1 0x24 PUSH1 0x0 REVERT JUMPDEST PUSH32 0x4E487B7100000000000000000000000000000000000000000000000000000000 PUSH1 0x0 MSTORE PUSH1 0x22 PUSH1 0x4 MSTORE PUSH1 0x24 PUSH1 0x0 REVERT JUMPDEST PUSH32 0x4E487B7100000000000000000000000000000000000000000000000000000000 PUSH1 0x0 MSTORE PUSH1 0x41 PUSH1 0x4 MSTORE PUSH1 0x24 PUSH1 0x0 REVERT JUMPDEST PUSH1 0x0 PUSH1 0x1F NOT PUSH1 0x1F DUP4 ADD AND SWAP1 POP SWAP2 SWAP1 POP JUMP JUMPDEST PUSH32 0x43616E6E6F742072656D6F76652063616E646964617465732061667465722076 PUSH1 0x0 DUP3 ADD MSTORE PUSH32 0x6F74696E672068617320737461727465642E0000000000000000000000000000 PUSH1 0x20 DUP3 ADD MSTORE POP JUMP JUMPDEST PUSH32 0x596F75206861766520616C726561647920766F7465642E000000000000000000 PUSH1 0x0 DUP3 ADD MSTORE POP JUMP JUMPDEST PUSH32 0x566F74696E6720616C726561647920737461727465642E000000000000000000 PUSH1 0x0 DUP3 ADD MSTORE POP JUMP JUMPDEST PUSH32 0x566F74696E67206973206E6F74206163746976652E0000000000000000000000 PUSH1 0x0 DUP3 ADD MSTORE POP JUMP JUMPDEST PUSH32 0x43616E6E6F74206164642063616E6469646174657320616674657220766F7469 PUSH1 0x0 DUP3 ADD MSTORE PUSH32 0x6E672068617320737461727465642E0000000000000000000000000000000000 PUSH1 0x20 DUP3 ADD MSTORE POP JUMP JUMPDEST PUSH32 0x4F6E6C792061646D696E2063616E20706572666F726D20746869732061637469 PUSH1 0x0 DUP3 ADD MSTORE PUSH32 0x6F6E000000000000000000000000000000000000000000000000000000000000 PUSH1 0x20 DUP3 ADD MSTORE POP JUMP JUMPDEST PUSH32 0x566F74696E67206E6F74206163746976652E0000000000000000000000000000 PUSH1 0x0 DUP3 ADD MSTORE POP JUMP JUMPDEST PUSH32 0x43616E64696461746520646F6573206E6F742065786973742E00000000000000 PUSH1 0x0 DUP3 ADD MSTORE POP JUMP JUMPDEST PUSH32 0x496E76616C69642063616E6469646174652049442E0000000000000000000000 PUSH1 0x0 DUP3 ADD MSTORE POP JUMP JUMPDEST PUSH2 0x15BD DUP2 PUSH2 0x11FD JUMP JUMPDEST DUP2 EQ PUSH2 0x15C8 JUMPI PUSH1 0x0 DUP1 REVERT JUMPDEST POP JUMP JUMPDEST PUSH2 0x15D4 DUP2 PUSH2 0x123B JUMP JUMPDEST DUP2 EQ PUSH2 0x15DF JUMPI PUSH1 0x0 DUP1 REVERT JUMPDEST POP JUMP INVALID LOG2 PUSH5 0x6970667358 0x22 SLT KECCAK256 EXTCODECOPY PC CALLDATACOPY SWAP16 PUSH6 0x56BE6EB6CCA2 CALLDATASIZE ORIGIN 0xDB PUSH3 0xC4D9EE 0x27 DUP9 0xA6 0xEF PUSH11 0x541AD0890AFE79E1496473 PUSH16 0x6C634300080400330000000000000000 "
				},
				"gasEstimates": {
					"creation": {
						"codeDepositCost": "1131200",
						"executionCost": "22040",
						"totalCost": "1153240"
					},
					"external": {
						"addCandidate(string)": "infinite",
						"admin()": "1321",
						"candidadtescount()": "1195",
						"candidates(uint256)": "infinite",
						"endVoting()": "24560",
						"getCandidate(uint256)": "infinite",
						"hasVoted(address)": "1590",
						"removeCandidate(uint256)": "infinite",
						"startVoting()": "44495",
						"vote(uint256)": "infinite",
						"votingEnded()": "1265",
						"votingStarted()": "1193"
					}
				},
				"methodIdentifiers": {
					"addCandidate(string)": "462e91ec",
					"admin()": "f851a440",
					"candidadtescount()": "bc08df78",
					"candidates(uint256)": "3477ee2e",
					"endVoting()": "c3403ddf",
					"getCandidate(uint256)": "35b8e820",
					"hasVoted(address)": "09eef43e",
					"removeCandidate(uint256)": "09e9d7e2",
					"startVoting()": "1ec6b60a",
					"vote(uint256)": "0121b93f",
					"votingEnded()": "9d5a0529",
					"votingStarted()": "83d948b7"
				}
			},
			"storageLayout": {
				"storage": [
					{
						"astId": 3,
						"contract": "voting.sol:Voting",
						"label": "admin",
						"offset": 0,
						"slot": "0",
						"type": "t_address"
					},
					{
						"astId": 12,
						"contract": "voting.sol:Voting",
						"label": "candidadtescount",
						"offset": 0,
						"slot": "1",
						"type": "t_uint256"
					},
					{
						"astId": 17,
						"contract": "voting.sol:Voting",
						"label": "candidates",
						"offset": 0,
						"slot": "2",
						"type": "t_mapping(t_uint256,t_struct(Candidate)10_storage)"
					},
					{
						"astId": 21,
						"contract": "voting.sol:Voting",
						"label": "hasVoted",
						"offset": 0,
						"slot": "3",
						"type": "t_mapping(t_address,t_bool)"
					},
					{
						"astId": 23,
						"contract": "voting.sol:Voting",
						"label": "votingStarted",
						"offset": 0,
						"slot": "4",
						"type": "t_bool"
					},
					{
						"astId": 25,
						"contract": "voting.sol:Voting",
						"label": "votingEnded",
						"offset": 1,
						"slot": "4",
						"type": "t_bool"
					}
				],
				"types": {
					"t_address": {
						"encoding": "inplace",
						"label": "address",
						"numberOfBytes": "20"
					},
					"t_bool": {
						"encoding": "inplace",
						"label": "bool",
						"numberOfBytes": "1"
					},
					"t_mapping(t_address,t_bool)": {
						"encoding": "mapping",
						"key": "t_address",
						"label": "mapping(address => bool)",
						"numberOfBytes": "32",
						"value": "t_bool"
					},
					"t_mapping(t_uint256,t_struct(Candidate)10_storage)": {
						"encoding": "mapping",
						"key": "t_uint256",
						"label": "mapping(uint256 => struct Voting.Candidate)",
						"numberOfBytes": "32",
						"value": "t_struct(Candidate)10_storage"
					},
					"t_string_storage": {
						"encoding": "bytes",
						"label": "string",
						"numberOfBytes": "32"
					},
					"t_struct(Candidate)10_storage": {
						"encoding": "inplace",
						"label": "struct Voting.Candidate",
						"members": [
							{
								"astId": 5,
								"contract": "voting.sol:Voting",
								"label": "id",
								"offset": 0,
								"slot": "0",
								"type": "t_uint256"
							},
							{
								"astId": 7,
								"contract": "voting.sol:Voting",
								"label": "name",
								"offset": 0,
								"slot": "1",
								"type": "t_string_storage"
							},
							{
								"astId": 9,
								"contract": "voting.sol:Voting",
								"label": "votecount",
								"offset": 0,
								"slot": "2",
								"type": "t_uint256"
							}
						],
						"numberOfBytes": "96"
					},
					"t_uint256": {
						"encoding": "inplace",
						"label": "uint256",
						"numberOfBytes": "32"
					}
				}
			},
			"userdoc": {
				"kind": "user",
				"methods": {},
				"version": 1
			}
		}
	}
}